{
	"schemaVersion": "2.0.0",
	"contractName": "ERC721Proxy",
	"compilerOutput": {
		"abi": [
			{
				"constant": false,
				"inputs": [
					{
						"name": "target",
						"type": "address"
					}
				],
				"name": "addAuthorizedAddress",
				"outputs": [],
				"payable": false,
				"stateMutability": "nonpayable",
				"type": "function"
			},
			{
				"constant": true,
				"inputs": [
					{
						"name": "",
						"type": "uint256"
					}
				],
				"name": "authorities",
				"outputs": [
					{
						"name": "",
						"type": "address"
					}
				],
				"payable": false,
				"stateMutability": "view",
				"type": "function"
			},
			{
				"constant": false,
				"inputs": [
					{
						"name": "assetMetadata",
						"type": "bytes[]"
					},
					{
						"name": "from",
						"type": "address[]"
					},
					{
						"name": "to",
						"type": "address[]"
					},
					{
						"name": "amounts",
						"type": "uint256[]"
					}
				],
				"name": "batchTransferFrom",
				"outputs": [],
				"payable": false,
				"stateMutability": "nonpayable",
				"type": "function"
			},
			{
				"constant": false,
				"inputs": [
					{
						"name": "target",
						"type": "address"
					}
				],
				"name": "removeAuthorizedAddress",
				"outputs": [],
				"payable": false,
				"stateMutability": "nonpayable",
				"type": "function"
			},
			{
				"constant": true,
				"inputs": [],
				"name": "owner",
				"outputs": [
					{
						"name": "",
						"type": "address"
					}
				],
				"payable": false,
				"stateMutability": "view",
				"type": "function"
			},
			{
				"constant": false,
				"inputs": [
					{
						"name": "target",
						"type": "address"
					},
					{
						"name": "index",
						"type": "uint256"
					}
				],
				"name": "removeAuthorizedAddressAtIndex",
				"outputs": [],
				"payable": false,
				"stateMutability": "nonpayable",
				"type": "function"
			},
			{
				"constant": false,
				"inputs": [
					{
						"name": "assetMetadata",
						"type": "bytes"
					},
					{
						"name": "from",
						"type": "address"
					},
					{
						"name": "to",
						"type": "address"
					},
					{
						"name": "amount",
						"type": "uint256"
					}
				],
				"name": "transferFrom",
				"outputs": [],
				"payable": false,
				"stateMutability": "nonpayable",
				"type": "function"
			},
			{
				"constant": true,
				"inputs": [],
				"name": "getProxyId",
				"outputs": [
					{
						"name": "",
						"type": "uint8"
					}
				],
				"payable": false,
				"stateMutability": "view",
				"type": "function"
			},
			{
				"constant": true,
				"inputs": [
					{
						"name": "",
						"type": "address"
					}
				],
				"name": "authorized",
				"outputs": [
					{
						"name": "",
						"type": "bool"
					}
				],
				"payable": false,
				"stateMutability": "view",
				"type": "function"
			},
			{
				"constant": true,
				"inputs": [],
				"name": "getAuthorizedAddresses",
				"outputs": [
					{
						"name": "",
						"type": "address[]"
					}
				],
				"payable": false,
				"stateMutability": "view",
				"type": "function"
			},
			{
				"constant": false,
				"inputs": [
					{
						"name": "newOwner",
						"type": "address"
					}
				],
				"name": "transferOwnership",
				"outputs": [],
				"payable": false,
				"stateMutability": "nonpayable",
				"type": "function"
			},
			{
				"anonymous": false,
				"inputs": [
					{
						"indexed": true,
						"name": "target",
						"type": "address"
					},
					{
						"indexed": true,
						"name": "caller",
						"type": "address"
					}
				],
				"name": "AuthorizedAddressAdded",
				"type": "event"
			},
			{
				"anonymous": false,
				"inputs": [
					{
						"indexed": true,
						"name": "target",
						"type": "address"
					},
					{
						"indexed": true,
						"name": "caller",
						"type": "address"
					}
				],
				"name": "AuthorizedAddressRemoved",
				"type": "event"
			}
		],
		"evm": {
			"bytecode": {
				"linkReferences": {},
				"object": "0x608060405260008054600160a060020a0319163317905561157e806100256000396000f3006080604052600436106100955763ffffffff60e060020a60003504166342f1181e811461009a578063494503d4146100bc578063563c875d146100f257806370712939146101125780638da5cb5b146101325780639ad2674414610147578063a85e59e414610167578063ae25532e14610187578063b9181611146101a9578063d39de6e9146101d6578063f2fde38b146101f8575b600080fd5b3480156100a657600080fd5b506100ba6100b53660046110b5565b610218565b005b3480156100c857600080fd5b506100dc6100d736600461124d565b610367565b6040516100e99190611370565b60405180910390f35b3480156100fe57600080fd5b506100ba61010d366004611115565b61038f565b34801561011e57600080fd5b506100ba61012d3660046110b5565b610487565b34801561013e57600080fd5b506100dc610647565b34801561015357600080fd5b506100ba6101623660046110db565b610656565b34801561017357600080fd5b506100ba6101823660046111d1565b61082e565b34801561019357600080fd5b5061019c6108e1565b6040516100e99190611402565b3480156101b557600080fd5b506101c96101c43660046110b5565b6108e7565b6040516100e991906113d3565b3480156101e257600080fd5b506101eb6108fc565b6040516100e991906113c2565b34801561020457600080fd5b506100ba6102133660046110b5565b61095e565b600054600160a060020a0316331461024e5760405160e560020a62461bcd028152600401610245906113f2565b60405180910390fd5b600160a060020a038116600090815260016020908152604091829020548251606081018452602681527f546172676574206d757374206e6f7420616c726561647920626520617574686f9281019290925260d160020a653934bd32b21702928201929092529060ff16156102d85760405160e560020a62461bcd02815260040161024591906113e1565b50600160a060020a0381166000818152600160208190526040808320805460ff19168317905560028054928301815583527f405787fa12a823e0f2b7631cc41b3ba8828b3321ca811111fa75cd3aa3bb5ace9091018054600160a060020a03191684179055513392917f3147867c59d17e8fa9d522465651d44aae0a9e38f902f3475b97e58072f0ed4c91a350565b600280548290811061037557fe5b600091825260209091200154600160a060020a0316905081565b336000908152600160209081526040808320548151606081018352602a81526000805160206114e58339815191529381019390935260b160020a6934b99036b2ba3437b217029183019190915260ff1615156104015760405160e560020a62461bcd02815260040161024591906113e1565b50600090505b845181101561048057610478858281518110151561042157fe5b90602001906020020151858381518110151561043957fe5b90602001906020020151858481518110151561045157fe5b90602001906020020151858581518110151561046957fe5b906020019060200201516109b9565b600101610407565b5050505050565b60008054600160a060020a031633146104b55760405160e560020a62461bcd028152600401610245906113f2565b600160a060020a038216600090815260016020908152604091829020548251606081018452602281527f5461726765742061646472657373206d75737420626520617574686f72697a659281019290925260f160020a61321702928201929092529060ff16151561053c5760405160e560020a62461bcd02815260040161024591906113e1565b5050600160a060020a0381166000908152600160205260408120805460ff191690555b60025481101561061f5781600160a060020a031660028281548110151561058257fe5b600091825260209091200154600160a060020a03161415610617576002805460001981019081106105af57fe5b60009182526020909120015460028054600160a060020a0390921691839081106105d557fe5b60009182526020909120018054600160a060020a031916600160a060020a03929092169190911790556002805460001901906106119082610e7d565b5061061f565b60010161055f565b6040513390600160a060020a0384169060008051602061150583398151915290600090a35050565b600054600160a060020a031681565b60025460408051606081018252602781527f53706563696669656420617272617920696e646578206973206f7574206f6620602082015260c960020a663137bab732399702918101919091529082106106c55760405160e560020a62461bcd02815260040161024591906113e1565b5081600160a060020a03166002828154811015156106df57fe5b6000918252602091829020015460408051606081018252603581527f4164647265737320666f756e6420617420696e64657820646f6573206e6f742093810193909352605960020a7436b0ba31b4103a30b933b2ba1030b2323932b9b99702908301529091600160a060020a03909116146107705760405160e560020a62461bcd02815260040161024591906113e1565b50600160a060020a0382166000908152600160205260409020805460ff191690556002805460001981019081106107a357fe5b60009182526020909120015460028054600160a060020a0390921691839081106107c957fe5b60009182526020909120018054600160a060020a031916600160a060020a03929092169190911790556002805460001901906108059082610e7d565b506040513390600160a060020a0384169060008051602061150583398151915290600090a35050565b33600090815260016020908152604091829020548251606081018452602a81526000805160206114e58339815191529281019290925260b160020a6934b99036b2ba3437b21702928201929092529060ff1615156108a25760405160e560020a62461bcd02815260040161024591906113e1565b5061048085858080601f0160208091040260200160405190810160405280939291908181526020018383808284378201915050505050508484846109b9565b60025b90565b60016020526000908152604090205460ff1681565b6060600280548060200260200160405190810160405280929190818152602001828054801561095457602002820191906000526020600020905b8154600160a060020a03168152600190910190602001808311610936575b5050505050905090565b600054600160a060020a0316331461098b5760405160e560020a62461bcd028152600401610245906113f2565b600160a060020a038116156109b65760008054600160a060020a031916600160a060020a0383161790555b50565b600080600060606109c988610b19565b60408051606081018252603281527f50726f787920696420696e206d6574616461746120646f6573206e6f74206d616020820152607160020a713a31b4103a3434b990383937bc3c9034b21702918101919091529397509195509350915060ff8516600214610a4e5760405160e560020a62461bcd02815260040161024591906113e1565b5060408051808201909152601d81527f5472616e7366657220616d6f756e74206d75737420657175616c20312e000000602082015260018614610aa75760405160e560020a62461bcd02815260040161024591906113e1565b5060405160e160020a635c46a7ef028152600160a060020a0384169063b88d4fde90610add908a908a908790879060040161137e565b600060405180830381600087803b158015610af757600080fd5b505af1158015610b0b573d6000803e3d6000fd5b505050505050505050505050565b60008060006060603585511015606060405190810160405280602b81526020017f4d65746164617461206d75737420686176652061206c656e677468206f662061815260200160a960020a6a3a103632b0b9ba101a999702815250901515610b975760405160e560020a62461bcd02815260040161024591906113e1565b50846000815181101515610ba757fe5b016020015160f860020a908190048102049350610bc5856001610bf3565b9250610bd2856015610c79565b9150603585511115610bec57610be9856035610c8c565b90505b9193509193565b60008160140183511015606060405190810160405280602b8152602001600080516020611525833981519152815260200160a960020a6a38bab0b6103a379019181702815250901515610c5c5760405160e560020a62461bcd02815260040161024591906113e1565b50506014818301810151910190600160a060020a03165b92915050565b6000610c858383610d64565b9392505050565b60606000610c9a8484610c79565b905060208301925080830184511015606060405190810160405280602b8152602001600080516020611525833981519152815260200160a960020a6a38bab0b6103a379019991702815250901515610d085760405160e560020a62461bcd02815260040161024591906113e1565b50806040519080825280601f01601f191660200182016040528015610d37578160200160208202803883390190505b509150610d5d610d46836108e4565b60200184610d53876108e4565b0160200183610dd7565b5092915050565b60008160200183511015606060405190810160405280602b8152602001600080516020611525833981519152815260200160a960020a6a38bab0b6103a379019991702815250901515610dcd5760405160e560020a62461bcd02815260040161024591906113e1565b5050016020015190565b6020811015610e01576001816020036101000a038019835116818551168082178652505050610e78565b82821415610e0e57610e78565b82821115610e485760208103905080820181840181515b82851015610e40578451865260209586019590940193610e25565b905250610e78565b60208103905080820181840183515b82851015610e735782518252601f199283019290910190610e57565b855250505b505050565b815481835581811115610e7857600083815260209020610e789181019083016108e491905b80821115610eb65760008155600101610ea2565b5090565b6000610c858235611487565b6000601f82018313610ed757600080fd5b8135610eea610ee582611436565b611410565b91508181835260208401935060208101905083856020840282011115610f0f57600080fd5b60005b83811015610f3b5781610f258882610eba565b8452506020928301929190910190600101610f12565b5050505092915050565b6000601f82018313610f5657600080fd5b8135610f64610ee582611436565b81815260209384019390925082018360005b83811015610f3b5781358601610f8c888261105a565b8452506020928301929190910190600101610f76565b6000601f82018313610fb357600080fd5b8135610fc1610ee582611436565b91508181835260208401935060208101905083856020840282011115610fe657600080fd5b60005b83811015610f3b5781610ffc88826110a9565b8452506020928301929190910190600101610fe9565b600080601f8301841361102457600080fd5b5081356001604060020a0381111561103b57600080fd5b60208301915083600182028301111561105357600080fd5b9250929050565b6000601f8201831361106b57600080fd5b8135611079610ee582611456565b9150808252602083016020830185838301111561109557600080fd5b6110a083828461149e565b50505092915050565b6000610c8582356108e4565b6000602082840312156110c757600080fd5b60006110d38484610eba565b949350505050565b600080604083850312156110ee57600080fd5b60006110fa8585610eba565b925050602061110b858286016110a9565b9150509250929050565b6000806000806080858703121561112b57600080fd5b84356001604060020a0381111561114157600080fd5b61114d87828801610f45565b94505060208501356001604060020a0381111561116957600080fd5b61117587828801610ec6565b93505060408501356001604060020a0381111561119157600080fd5b61119d87828801610ec6565b92505060608501356001604060020a038111156111b957600080fd5b6111c587828801610fa2565b91505092959194509250565b6000806000806000608086880312156111e957600080fd5b85356001604060020a038111156111ff57600080fd5b61120b88828901611012565b9550955050602061121e88828901610eba565b935050604061122f88828901610eba565b9250506060611240888289016110a9565b9150509295509295909350565b60006020828403121561125f57600080fd5b60006110d384846110a9565b61127481611487565b82525050565b600061128582611483565b8084526020840193506112978361147d565b60005b828110156112c7576112ad86835161126b565b6112b68261147d565b60209690960195915060010161129a565b5093949350505050565b61127481611493565b60006112e582611483565b8084526112f98160208601602086016114aa565b611302816114da565b9093016020019392505050565b603381527f4f6e6c7920636f6e7472616374206f776e657220697320616c6c6f77656420746020820152606960020a72379031b0b636103a3434b99036b2ba3437b21702604082015260600190565b611274816108e4565b61127481611498565b60208101610c73828461126b565b6080810161138c828761126b565b611399602083018661126b565b6113a6604083018561135e565b81810360608301526113b881846112da565b9695505050505050565b60208082528101610c85818461127a565b60208101610c7382846112d1565b60208082528101610c8581846112da565b60208082528101610c738161130f565b60208101610c738284611367565b6040518181016001604060020a038111828210171561142e57600080fd5b604052919050565b60006001604060020a0382111561144c57600080fd5b5060209081020190565b60006001604060020a0382111561146c57600080fd5b506020601f91909101601f19160190565b60200190565b5190565b600160a060020a031690565b151590565b60ff1690565b82818337506000910152565b60005b838110156114c55781810151838201526020016114ad565b838111156114d4576000848401525b50505050565b601f01601f191690560053656e646572206e6f7420617574686f72697a656420746f2063616c6c2074681f32c1b084e2de0713b8fb16bd46bb9df710a3dbeae2f3ca93af46e016dcc6b04c656e677468206d7573742062652067726561746572207468616e206f722065a265627a7a723058209e5464439cd25108034fae3ecc7108fb16047f735a0689c9beac09f39e5ef4786c6578706572696d656e74616cf50037",
				"opcodes": "PUSH1 0x80 PUSH1 0x40 MSTORE PUSH1 0x0 DUP1 SLOAD PUSH1 0x1 PUSH1 0xA0 PUSH1 0x2 EXP SUB NOT AND CALLER OR SWAP1 SSTORE PUSH2 0x157E DUP1 PUSH2 0x25 PUSH1 0x0 CODECOPY PUSH1 0x0 RETURN STOP PUSH1 0x80 PUSH1 0x40 MSTORE PUSH1 0x4 CALLDATASIZE LT PUSH2 0x95 JUMPI PUSH4 0xFFFFFFFF PUSH1 0xE0 PUSH1 0x2 EXP PUSH1 0x0 CALLDATALOAD DIV AND PUSH4 0x42F1181E DUP2 EQ PUSH2 0x9A JUMPI DUP1 PUSH4 0x494503D4 EQ PUSH2 0xBC JUMPI DUP1 PUSH4 0x563C875D EQ PUSH2 0xF2 JUMPI DUP1 PUSH4 0x70712939 EQ PUSH2 0x112 JUMPI DUP1 PUSH4 0x8DA5CB5B EQ PUSH2 0x132 JUMPI DUP1 PUSH4 0x9AD26744 EQ PUSH2 0x147 JUMPI DUP1 PUSH4 0xA85E59E4 EQ PUSH2 0x167 JUMPI DUP1 PUSH4 0xAE25532E EQ PUSH2 0x187 JUMPI DUP1 PUSH4 0xB9181611 EQ PUSH2 0x1A9 JUMPI DUP1 PUSH4 0xD39DE6E9 EQ PUSH2 0x1D6 JUMPI DUP1 PUSH4 0xF2FDE38B EQ PUSH2 0x1F8 JUMPI JUMPDEST PUSH1 0x0 DUP1 REVERT JUMPDEST CALLVALUE DUP1 ISZERO PUSH2 0xA6 JUMPI PUSH1 0x0 DUP1 REVERT JUMPDEST POP PUSH2 0xBA PUSH2 0xB5 CALLDATASIZE PUSH1 0x4 PUSH2 0x10B5 JUMP JUMPDEST PUSH2 0x218 JUMP JUMPDEST STOP JUMPDEST CALLVALUE DUP1 ISZERO PUSH2 0xC8 JUMPI PUSH1 0x0 DUP1 REVERT JUMPDEST POP PUSH2 0xDC PUSH2 0xD7 CALLDATASIZE PUSH1 0x4 PUSH2 0x124D JUMP JUMPDEST PUSH2 0x367 JUMP JUMPDEST PUSH1 0x40 MLOAD PUSH2 0xE9 SWAP2 SWAP1 PUSH2 0x1370 JUMP JUMPDEST PUSH1 0x40 MLOAD DUP1 SWAP2 SUB SWAP1 RETURN JUMPDEST CALLVALUE DUP1 ISZERO PUSH2 0xFE JUMPI PUSH1 0x0 DUP1 REVERT JUMPDEST POP PUSH2 0xBA PUSH2 0x10D CALLDATASIZE PUSH1 0x4 PUSH2 0x1115 JUMP JUMPDEST PUSH2 0x38F JUMP JUMPDEST CALLVALUE DUP1 ISZERO PUSH2 0x11E JUMPI PUSH1 0x0 DUP1 REVERT JUMPDEST POP PUSH2 0xBA PUSH2 0x12D CALLDATASIZE PUSH1 0x4 PUSH2 0x10B5 JUMP JUMPDEST PUSH2 0x487 JUMP JUMPDEST CALLVALUE DUP1 ISZERO PUSH2 0x13E JUMPI PUSH1 0x0 DUP1 REVERT JUMPDEST POP PUSH2 0xDC PUSH2 0x647 JUMP JUMPDEST CALLVALUE DUP1 ISZERO PUSH2 0x153 JUMPI PUSH1 0x0 DUP1 REVERT JUMPDEST POP PUSH2 0xBA PUSH2 0x162 CALLDATASIZE PUSH1 0x4 PUSH2 0x10DB JUMP JUMPDEST PUSH2 0x656 JUMP JUMPDEST CALLVALUE DUP1 ISZERO PUSH2 0x173 JUMPI PUSH1 0x0 DUP1 REVERT JUMPDEST POP PUSH2 0xBA PUSH2 0x182 CALLDATASIZE PUSH1 0x4 PUSH2 0x11D1 JUMP JUMPDEST PUSH2 0x82E JUMP JUMPDEST CALLVALUE DUP1 ISZERO PUSH2 0x193 JUMPI PUSH1 0x0 DUP1 REVERT JUMPDEST POP PUSH2 0x19C PUSH2 0x8E1 JUMP JUMPDEST PUSH1 0x40 MLOAD PUSH2 0xE9 SWAP2 SWAP1 PUSH2 0x1402 JUMP JUMPDEST CALLVALUE DUP1 ISZERO PUSH2 0x1B5 JUMPI PUSH1 0x0 DUP1 REVERT JUMPDEST POP PUSH2 0x1C9 PUSH2 0x1C4 CALLDATASIZE PUSH1 0x4 PUSH2 0x10B5 JUMP JUMPDEST PUSH2 0x8E7 JUMP JUMPDEST PUSH1 0x40 MLOAD PUSH2 0xE9 SWAP2 SWAP1 PUSH2 0x13D3 JUMP JUMPDEST CALLVALUE DUP1 ISZERO PUSH2 0x1E2 JUMPI PUSH1 0x0 DUP1 REVERT JUMPDEST POP PUSH2 0x1EB PUSH2 0x8FC JUMP JUMPDEST PUSH1 0x40 MLOAD PUSH2 0xE9 SWAP2 SWAP1 PUSH2 0x13C2 JUMP JUMPDEST CALLVALUE DUP1 ISZERO PUSH2 0x204 JUMPI PUSH1 0x0 DUP1 REVERT JUMPDEST POP PUSH2 0xBA PUSH2 0x213 CALLDATASIZE PUSH1 0x4 PUSH2 0x10B5 JUMP JUMPDEST PUSH2 0x95E JUMP JUMPDEST PUSH1 0x0 SLOAD PUSH1 0x1 PUSH1 0xA0 PUSH1 0x2 EXP SUB AND CALLER EQ PUSH2 0x24E JUMPI PUSH1 0x40 MLOAD PUSH1 0xE5 PUSH1 0x2 EXP PUSH3 0x461BCD MUL DUP2 MSTORE PUSH1 0x4 ADD PUSH2 0x245 SWAP1 PUSH2 0x13F2 JUMP JUMPDEST PUSH1 0x40 MLOAD DUP1 SWAP2 SUB SWAP1 REVERT JUMPDEST PUSH1 0x1 PUSH1 0xA0 PUSH1 0x2 EXP SUB DUP2 AND PUSH1 0x0 SWAP1 DUP2 MSTORE PUSH1 0x1 PUSH1 0x20 SWAP1 DUP2 MSTORE PUSH1 0x40 SWAP2 DUP3 SWAP1 KECCAK256 SLOAD DUP3 MLOAD PUSH1 0x60 DUP2 ADD DUP5 MSTORE PUSH1 0x26 DUP2 MSTORE PUSH32 0x546172676574206D757374206E6F7420616C726561647920626520617574686F SWAP3 DUP2 ADD SWAP3 SWAP1 SWAP3 MSTORE PUSH1 0xD1 PUSH1 0x2 EXP PUSH6 0x3934BD32B217 MUL SWAP3 DUP3 ADD SWAP3 SWAP1 SWAP3 MSTORE SWAP1 PUSH1 0xFF AND ISZERO PUSH2 0x2D8 JUMPI PUSH1 0x40 MLOAD PUSH1 0xE5 PUSH1 0x2 EXP PUSH3 0x461BCD MUL DUP2 MSTORE PUSH1 0x4 ADD PUSH2 0x245 SWAP2 SWAP1 PUSH2 0x13E1 JUMP JUMPDEST POP PUSH1 0x1 PUSH1 0xA0 PUSH1 0x2 EXP SUB DUP2 AND PUSH1 0x0 DUP2 DUP2 MSTORE PUSH1 0x1 PUSH1 0x20 DUP2 SWAP1 MSTORE PUSH1 0x40 DUP1 DUP4 KECCAK256 DUP1 SLOAD PUSH1 0xFF NOT AND DUP4 OR SWAP1 SSTORE PUSH1 0x2 DUP1 SLOAD SWAP3 DUP4 ADD DUP2 SSTORE DUP4 MSTORE PUSH32 0x405787FA12A823E0F2B7631CC41B3BA8828B3321CA811111FA75CD3AA3BB5ACE SWAP1 SWAP2 ADD DUP1 SLOAD PUSH1 0x1 PUSH1 0xA0 PUSH1 0x2 EXP SUB NOT AND DUP5 OR SWAP1 SSTORE MLOAD CALLER SWAP3 SWAP2 PUSH32 0x3147867C59D17E8FA9D522465651D44AAE0A9E38F902F3475B97E58072F0ED4C SWAP2 LOG3 POP JUMP JUMPDEST PUSH1 0x2 DUP1 SLOAD DUP3 SWAP1 DUP2 LT PUSH2 0x375 JUMPI INVALID JUMPDEST PUSH1 0x0 SWAP2 DUP3 MSTORE PUSH1 0x20 SWAP1 SWAP2 KECCAK256 ADD SLOAD PUSH1 0x1 PUSH1 0xA0 PUSH1 0x2 EXP SUB AND SWAP1 POP DUP2 JUMP JUMPDEST CALLER PUSH1 0x0 SWAP1 DUP2 MSTORE PUSH1 0x1 PUSH1 0x20 SWAP1 DUP2 MSTORE PUSH1 0x40 DUP1 DUP4 KECCAK256 SLOAD DUP2 MLOAD PUSH1 0x60 DUP2 ADD DUP4 MSTORE PUSH1 0x2A DUP2 MSTORE PUSH1 0x0 DUP1 MLOAD PUSH1 0x20 PUSH2 0x14E5 DUP4 CODECOPY DUP2 MLOAD SWAP2 MSTORE SWAP4 DUP2 ADD SWAP4 SWAP1 SWAP4 MSTORE PUSH1 0xB1 PUSH1 0x2 EXP PUSH10 0x34B99036B2BA3437B217 MUL SWAP2 DUP4 ADD SWAP2 SWAP1 SWAP2 MSTORE PUSH1 0xFF AND ISZERO ISZERO PUSH2 0x401 JUMPI PUSH1 0x40 MLOAD PUSH1 0xE5 PUSH1 0x2 EXP PUSH3 0x461BCD MUL DUP2 MSTORE PUSH1 0x4 ADD PUSH2 0x245 SWAP2 SWAP1 PUSH2 0x13E1 JUMP JUMPDEST POP PUSH1 0x0 SWAP1 POP JUMPDEST DUP5 MLOAD DUP2 LT ISZERO PUSH2 0x480 JUMPI PUSH2 0x478 DUP6 DUP3 DUP2 MLOAD DUP2 LT ISZERO ISZERO PUSH2 0x421 JUMPI INVALID JUMPDEST SWAP1 PUSH1 0x20 ADD SWAP1 PUSH1 0x20 MUL ADD MLOAD DUP6 DUP4 DUP2 MLOAD DUP2 LT ISZERO ISZERO PUSH2 0x439 JUMPI INVALID JUMPDEST SWAP1 PUSH1 0x20 ADD SWAP1 PUSH1 0x20 MUL ADD MLOAD DUP6 DUP5 DUP2 MLOAD DUP2 LT ISZERO ISZERO PUSH2 0x451 JUMPI INVALID JUMPDEST SWAP1 PUSH1 0x20 ADD SWAP1 PUSH1 0x20 MUL ADD MLOAD DUP6 DUP6 DUP2 MLOAD DUP2 LT ISZERO ISZERO PUSH2 0x469 JUMPI INVALID JUMPDEST SWAP1 PUSH1 0x20 ADD SWAP1 PUSH1 0x20 MUL ADD MLOAD PUSH2 0x9B9 JUMP JUMPDEST PUSH1 0x1 ADD PUSH2 0x407 JUMP JUMPDEST POP POP POP POP POP JUMP JUMPDEST PUSH1 0x0 DUP1 SLOAD PUSH1 0x1 PUSH1 0xA0 PUSH1 0x2 EXP SUB AND CALLER EQ PUSH2 0x4B5 JUMPI PUSH1 0x40 MLOAD PUSH1 0xE5 PUSH1 0x2 EXP PUSH3 0x461BCD MUL DUP2 MSTORE PUSH1 0x4 ADD PUSH2 0x245 SWAP1 PUSH2 0x13F2 JUMP JUMPDEST PUSH1 0x1 PUSH1 0xA0 PUSH1 0x2 EXP SUB DUP3 AND PUSH1 0x0 SWAP1 DUP2 MSTORE PUSH1 0x1 PUSH1 0x20 SWAP1 DUP2 MSTORE PUSH1 0x40 SWAP2 DUP3 SWAP1 KECCAK256 SLOAD DUP3 MLOAD PUSH1 0x60 DUP2 ADD DUP5 MSTORE PUSH1 0x22 DUP2 MSTORE PUSH32 0x5461726765742061646472657373206D75737420626520617574686F72697A65 SWAP3 DUP2 ADD SWAP3 SWAP1 SWAP3 MSTORE PUSH1 0xF1 PUSH1 0x2 EXP PUSH2 0x3217 MUL SWAP3 DUP3 ADD SWAP3 SWAP1 SWAP3 MSTORE SWAP1 PUSH1 0xFF AND ISZERO ISZERO PUSH2 0x53C JUMPI PUSH1 0x40 MLOAD PUSH1 0xE5 PUSH1 0x2 EXP PUSH3 0x461BCD MUL DUP2 MSTORE PUSH1 0x4 ADD PUSH2 0x245 SWAP2 SWAP1 PUSH2 0x13E1 JUMP JUMPDEST POP POP PUSH1 0x1 PUSH1 0xA0 PUSH1 0x2 EXP SUB DUP2 AND PUSH1 0x0 SWAP1 DUP2 MSTORE PUSH1 0x1 PUSH1 0x20 MSTORE PUSH1 0x40 DUP2 KECCAK256 DUP1 SLOAD PUSH1 0xFF NOT AND SWAP1 SSTORE JUMPDEST PUSH1 0x2 SLOAD DUP2 LT ISZERO PUSH2 0x61F JUMPI DUP2 PUSH1 0x1 PUSH1 0xA0 PUSH1 0x2 EXP SUB AND PUSH1 0x2 DUP3 DUP2 SLOAD DUP2 LT ISZERO ISZERO PUSH2 0x582 JUMPI INVALID JUMPDEST PUSH1 0x0 SWAP2 DUP3 MSTORE PUSH1 0x20 SWAP1 SWAP2 KECCAK256 ADD SLOAD PUSH1 0x1 PUSH1 0xA0 PUSH1 0x2 EXP SUB AND EQ ISZERO PUSH2 0x617 JUMPI PUSH1 0x2 DUP1 SLOAD PUSH1 0x0 NOT DUP2 ADD SWAP1 DUP2 LT PUSH2 0x5AF JUMPI INVALID JUMPDEST PUSH1 0x0 SWAP2 DUP3 MSTORE PUSH1 0x20 SWAP1 SWAP2 KECCAK256 ADD SLOAD PUSH1 0x2 DUP1 SLOAD PUSH1 0x1 PUSH1 0xA0 PUSH1 0x2 EXP SUB SWAP1 SWAP3 AND SWAP2 DUP4 SWAP1 DUP2 LT PUSH2 0x5D5 JUMPI INVALID JUMPDEST PUSH1 0x0 SWAP2 DUP3 MSTORE PUSH1 0x20 SWAP1 SWAP2 KECCAK256 ADD DUP1 SLOAD PUSH1 0x1 PUSH1 0xA0 PUSH1 0x2 EXP SUB NOT AND PUSH1 0x1 PUSH1 0xA0 PUSH1 0x2 EXP SUB SWAP3 SWAP1 SWAP3 AND SWAP2 SWAP1 SWAP2 OR SWAP1 SSTORE PUSH1 0x2 DUP1 SLOAD PUSH1 0x0 NOT ADD SWAP1 PUSH2 0x611 SWAP1 DUP3 PUSH2 0xE7D JUMP JUMPDEST POP PUSH2 0x61F JUMP JUMPDEST PUSH1 0x1 ADD PUSH2 0x55F JUMP JUMPDEST PUSH1 0x40 MLOAD CALLER SWAP1 PUSH1 0x1 PUSH1 0xA0 PUSH1 0x2 EXP SUB DUP5 AND SWAP1 PUSH1 0x0 DUP1 MLOAD PUSH1 0x20 PUSH2 0x1505 DUP4 CODECOPY DUP2 MLOAD SWAP2 MSTORE SWAP1 PUSH1 0x0 SWAP1 LOG3 POP POP JUMP JUMPDEST PUSH1 0x0 SLOAD PUSH1 0x1 PUSH1 0xA0 PUSH1 0x2 EXP SUB AND DUP2 JUMP JUMPDEST PUSH1 0x2 SLOAD PUSH1 0x40 DUP1 MLOAD PUSH1 0x60 DUP2 ADD DUP3 MSTORE PUSH1 0x27 DUP2 MSTORE PUSH32 0x53706563696669656420617272617920696E646578206973206F7574206F6620 PUSH1 0x20 DUP3 ADD MSTORE PUSH1 0xC9 PUSH1 0x2 EXP PUSH7 0x3137BAB7323997 MUL SWAP2 DUP2 ADD SWAP2 SWAP1 SWAP2 MSTORE SWAP1 DUP3 LT PUSH2 0x6C5 JUMPI PUSH1 0x40 MLOAD PUSH1 0xE5 PUSH1 0x2 EXP PUSH3 0x461BCD MUL DUP2 MSTORE PUSH1 0x4 ADD PUSH2 0x245 SWAP2 SWAP1 PUSH2 0x13E1 JUMP JUMPDEST POP DUP2 PUSH1 0x1 PUSH1 0xA0 PUSH1 0x2 EXP SUB AND PUSH1 0x2 DUP3 DUP2 SLOAD DUP2 LT ISZERO ISZERO PUSH2 0x6DF JUMPI INVALID JUMPDEST PUSH1 0x0 SWAP2 DUP3 MSTORE PUSH1 0x20 SWAP2 DUP3 SWAP1 KECCAK256 ADD SLOAD PUSH1 0x40 DUP1 MLOAD PUSH1 0x60 DUP2 ADD DUP3 MSTORE PUSH1 0x35 DUP2 MSTORE PUSH32 0x4164647265737320666F756E6420617420696E64657820646F6573206E6F7420 SWAP4 DUP2 ADD SWAP4 SWAP1 SWAP4 MSTORE PUSH1 0x59 PUSH1 0x2 EXP PUSH21 0x36B0BA31B4103A30B933B2BA1030B2323932B9B997 MUL SWAP1 DUP4 ADD MSTORE SWAP1 SWAP2 PUSH1 0x1 PUSH1 0xA0 PUSH1 0x2 EXP SUB SWAP1 SWAP2 AND EQ PUSH2 0x770 JUMPI PUSH1 0x40 MLOAD PUSH1 0xE5 PUSH1 0x2 EXP PUSH3 0x461BCD MUL DUP2 MSTORE PUSH1 0x4 ADD PUSH2 0x245 SWAP2 SWAP1 PUSH2 0x13E1 JUMP JUMPDEST POP PUSH1 0x1 PUSH1 0xA0 PUSH1 0x2 EXP SUB DUP3 AND PUSH1 0x0 SWAP1 DUP2 MSTORE PUSH1 0x1 PUSH1 0x20 MSTORE PUSH1 0x40 SWAP1 KECCAK256 DUP1 SLOAD PUSH1 0xFF NOT AND SWAP1 SSTORE PUSH1 0x2 DUP1 SLOAD PUSH1 0x0 NOT DUP2 ADD SWAP1 DUP2 LT PUSH2 0x7A3 JUMPI INVALID JUMPDEST PUSH1 0x0 SWAP2 DUP3 MSTORE PUSH1 0x20 SWAP1 SWAP2 KECCAK256 ADD SLOAD PUSH1 0x2 DUP1 SLOAD PUSH1 0x1 PUSH1 0xA0 PUSH1 0x2 EXP SUB SWAP1 SWAP3 AND SWAP2 DUP4 SWAP1 DUP2 LT PUSH2 0x7C9 JUMPI INVALID JUMPDEST PUSH1 0x0 SWAP2 DUP3 MSTORE PUSH1 0x20 SWAP1 SWAP2 KECCAK256 ADD DUP1 SLOAD PUSH1 0x1 PUSH1 0xA0 PUSH1 0x2 EXP SUB NOT AND PUSH1 0x1 PUSH1 0xA0 PUSH1 0x2 EXP SUB SWAP3 SWAP1 SWAP3 AND SWAP2 SWAP1 SWAP2 OR SWAP1 SSTORE PUSH1 0x2 DUP1 SLOAD PUSH1 0x0 NOT ADD SWAP1 PUSH2 0x805 SWAP1 DUP3 PUSH2 0xE7D JUMP JUMPDEST POP PUSH1 0x40 MLOAD CALLER SWAP1 PUSH1 0x1 PUSH1 0xA0 PUSH1 0x2 EXP SUB DUP5 AND SWAP1 PUSH1 0x0 DUP1 MLOAD PUSH1 0x20 PUSH2 0x1505 DUP4 CODECOPY DUP2 MLOAD SWAP2 MSTORE SWAP1 PUSH1 0x0 SWAP1 LOG3 POP POP JUMP JUMPDEST CALLER PUSH1 0x0 SWAP1 DUP2 MSTORE PUSH1 0x1 PUSH1 0x20 SWAP1 DUP2 MSTORE PUSH1 0x40 SWAP2 DUP3 SWAP1 KECCAK256 SLOAD DUP3 MLOAD PUSH1 0x60 DUP2 ADD DUP5 MSTORE PUSH1 0x2A DUP2 MSTORE PUSH1 0x0 DUP1 MLOAD PUSH1 0x20 PUSH2 0x14E5 DUP4 CODECOPY DUP2 MLOAD SWAP2 MSTORE SWAP3 DUP2 ADD SWAP3 SWAP1 SWAP3 MSTORE PUSH1 0xB1 PUSH1 0x2 EXP PUSH10 0x34B99036B2BA3437B217 MUL SWAP3 DUP3 ADD SWAP3 SWAP1 SWAP3 MSTORE SWAP1 PUSH1 0xFF AND ISZERO ISZERO PUSH2 0x8A2 JUMPI PUSH1 0x40 MLOAD PUSH1 0xE5 PUSH1 0x2 EXP PUSH3 0x461BCD MUL DUP2 MSTORE PUSH1 0x4 ADD PUSH2 0x245 SWAP2 SWAP1 PUSH2 0x13E1 JUMP JUMPDEST POP PUSH2 0x480 DUP6 DUP6 DUP1 DUP1 PUSH1 0x1F ADD PUSH1 0x20 DUP1 SWAP2 DIV MUL PUSH1 0x20 ADD PUSH1 0x40 MLOAD SWAP1 DUP2 ADD PUSH1 0x40 MSTORE DUP1 SWAP4 SWAP3 SWAP2 SWAP1 DUP2 DUP2 MSTORE PUSH1 0x20 ADD DUP4 DUP4 DUP1 DUP3 DUP5 CALLDATACOPY DUP3 ADD SWAP2 POP POP POP POP POP POP DUP5 DUP5 DUP5 PUSH2 0x9B9 JUMP JUMPDEST PUSH1 0x2 JUMPDEST SWAP1 JUMP JUMPDEST PUSH1 0x1 PUSH1 0x20 MSTORE PUSH1 0x0 SWAP1 DUP2 MSTORE PUSH1 0x40 SWAP1 KECCAK256 SLOAD PUSH1 0xFF AND DUP2 JUMP JUMPDEST PUSH1 0x60 PUSH1 0x2 DUP1 SLOAD DUP1 PUSH1 0x20 MUL PUSH1 0x20 ADD PUSH1 0x40 MLOAD SWAP1 DUP2 ADD PUSH1 0x40 MSTORE DUP1 SWAP3 SWAP2 SWAP1 DUP2 DUP2 MSTORE PUSH1 0x20 ADD DUP3 DUP1 SLOAD DUP1 ISZERO PUSH2 0x954 JUMPI PUSH1 0x20 MUL DUP3 ADD SWAP2 SWAP1 PUSH1 0x0 MSTORE PUSH1 0x20 PUSH1 0x0 KECCAK256 SWAP1 JUMPDEST DUP2 SLOAD PUSH1 0x1 PUSH1 0xA0 PUSH1 0x2 EXP SUB AND DUP2 MSTORE PUSH1 0x1 SWAP1 SWAP2 ADD SWAP1 PUSH1 0x20 ADD DUP1 DUP4 GT PUSH2 0x936 JUMPI JUMPDEST POP POP POP POP POP SWAP1 POP SWAP1 JUMP JUMPDEST PUSH1 0x0 SLOAD PUSH1 0x1 PUSH1 0xA0 PUSH1 0x2 EXP SUB AND CALLER EQ PUSH2 0x98B JUMPI PUSH1 0x40 MLOAD PUSH1 0xE5 PUSH1 0x2 EXP PUSH3 0x461BCD MUL DUP2 MSTORE PUSH1 0x4 ADD PUSH2 0x245 SWAP1 PUSH2 0x13F2 JUMP JUMPDEST PUSH1 0x1 PUSH1 0xA0 PUSH1 0x2 EXP SUB DUP2 AND ISZERO PUSH2 0x9B6 JUMPI PUSH1 0x0 DUP1 SLOAD PUSH1 0x1 PUSH1 0xA0 PUSH1 0x2 EXP SUB NOT AND PUSH1 0x1 PUSH1 0xA0 PUSH1 0x2 EXP SUB DUP4 AND OR SWAP1 SSTORE JUMPDEST POP JUMP JUMPDEST PUSH1 0x0 DUP1 PUSH1 0x0 PUSH1 0x60 PUSH2 0x9C9 DUP9 PUSH2 0xB19 JUMP JUMPDEST PUSH1 0x40 DUP1 MLOAD PUSH1 0x60 DUP2 ADD DUP3 MSTORE PUSH1 0x32 DUP2 MSTORE PUSH32 0x50726F787920696420696E206D6574616461746120646F6573206E6F74206D61 PUSH1 0x20 DUP3 ADD MSTORE PUSH1 0x71 PUSH1 0x2 EXP PUSH18 0x3A31B4103A3434B990383937BC3C9034B217 MUL SWAP2 DUP2 ADD SWAP2 SWAP1 SWAP2 MSTORE SWAP4 SWAP8 POP SWAP2 SWAP6 POP SWAP4 POP SWAP2 POP PUSH1 0xFF DUP6 AND PUSH1 0x2 EQ PUSH2 0xA4E JUMPI PUSH1 0x40 MLOAD PUSH1 0xE5 PUSH1 0x2 EXP PUSH3 0x461BCD MUL DUP2 MSTORE PUSH1 0x4 ADD PUSH2 0x245 SWAP2 SWAP1 PUSH2 0x13E1 JUMP JUMPDEST POP PUSH1 0x40 DUP1 MLOAD DUP1 DUP3 ADD SWAP1 SWAP2 MSTORE PUSH1 0x1D DUP2 MSTORE PUSH32 0x5472616E7366657220616D6F756E74206D75737420657175616C20312E000000 PUSH1 0x20 DUP3 ADD MSTORE PUSH1 0x1 DUP7 EQ PUSH2 0xAA7 JUMPI PUSH1 0x40 MLOAD PUSH1 0xE5 PUSH1 0x2 EXP PUSH3 0x461BCD MUL DUP2 MSTORE PUSH1 0x4 ADD PUSH2 0x245 SWAP2 SWAP1 PUSH2 0x13E1 JUMP JUMPDEST POP PUSH1 0x40 MLOAD PUSH1 0xE1 PUSH1 0x2 EXP PUSH4 0x5C46A7EF MUL DUP2 MSTORE PUSH1 0x1 PUSH1 0xA0 PUSH1 0x2 EXP SUB DUP5 AND SWAP1 PUSH4 0xB88D4FDE SWAP1 PUSH2 0xADD SWAP1 DUP11 SWAP1 DUP11 SWAP1 DUP8 SWAP1 DUP8 SWAP1 PUSH1 0x4 ADD PUSH2 0x137E JUMP JUMPDEST PUSH1 0x0 PUSH1 0x40 MLOAD DUP1 DUP4 SUB DUP2 PUSH1 0x0 DUP8 DUP1 EXTCODESIZE ISZERO DUP1 ISZERO PUSH2 0xAF7 JUMPI PUSH1 0x0 DUP1 REVERT JUMPDEST POP GAS CALL ISZERO DUP1 ISZERO PUSH2 0xB0B JUMPI RETURNDATASIZE PUSH1 0x0 DUP1 RETURNDATACOPY RETURNDATASIZE PUSH1 0x0 REVERT JUMPDEST POP POP POP POP POP POP POP POP POP POP POP POP JUMP JUMPDEST PUSH1 0x0 DUP1 PUSH1 0x0 PUSH1 0x60 PUSH1 0x35 DUP6 MLOAD LT ISZERO PUSH1 0x60 PUSH1 0x40 MLOAD SWAP1 DUP2 ADD PUSH1 0x40 MSTORE DUP1 PUSH1 0x2B DUP2 MSTORE PUSH1 0x20 ADD PUSH32 0x4D65746164617461206D75737420686176652061206C656E677468206F662061 DUP2 MSTORE PUSH1 0x20 ADD PUSH1 0xA9 PUSH1 0x2 EXP PUSH11 0x3A103632B0B9BA101A9997 MUL DUP2 MSTORE POP SWAP1 ISZERO ISZERO PUSH2 0xB97 JUMPI PUSH1 0x40 MLOAD PUSH1 0xE5 PUSH1 0x2 EXP PUSH3 0x461BCD MUL DUP2 MSTORE PUSH1 0x4 ADD PUSH2 0x245 SWAP2 SWAP1 PUSH2 0x13E1 JUMP JUMPDEST POP DUP5 PUSH1 0x0 DUP2 MLOAD DUP2 LT ISZERO ISZERO PUSH2 0xBA7 JUMPI INVALID JUMPDEST ADD PUSH1 0x20 ADD MLOAD PUSH1 0xF8 PUSH1 0x2 EXP SWAP1 DUP2 SWAP1 DIV DUP2 MUL DIV SWAP4 POP PUSH2 0xBC5 DUP6 PUSH1 0x1 PUSH2 0xBF3 JUMP JUMPDEST SWAP3 POP PUSH2 0xBD2 DUP6 PUSH1 0x15 PUSH2 0xC79 JUMP JUMPDEST SWAP2 POP PUSH1 0x35 DUP6 MLOAD GT ISZERO PUSH2 0xBEC JUMPI PUSH2 0xBE9 DUP6 PUSH1 0x35 PUSH2 0xC8C JUMP JUMPDEST SWAP1 POP JUMPDEST SWAP2 SWAP4 POP SWAP2 SWAP4 JUMP JUMPDEST PUSH1 0x0 DUP2 PUSH1 0x14 ADD DUP4 MLOAD LT ISZERO PUSH1 0x60 PUSH1 0x40 MLOAD SWAP1 DUP2 ADD PUSH1 0x40 MSTORE DUP1 PUSH1 0x2B DUP2 MSTORE PUSH1 0x20 ADD PUSH1 0x0 DUP1 MLOAD PUSH1 0x20 PUSH2 0x1525 DUP4 CODECOPY DUP2 MLOAD SWAP2 MSTORE DUP2 MSTORE PUSH1 0x20 ADD PUSH1 0xA9 PUSH1 0x2 EXP PUSH11 0x38BAB0B6103A3790191817 MUL DUP2 MSTORE POP SWAP1 ISZERO ISZERO PUSH2 0xC5C JUMPI PUSH1 0x40 MLOAD PUSH1 0xE5 PUSH1 0x2 EXP PUSH3 0x461BCD MUL DUP2 MSTORE PUSH1 0x4 ADD PUSH2 0x245 SWAP2 SWAP1 PUSH2 0x13E1 JUMP JUMPDEST POP POP PUSH1 0x14 DUP2 DUP4 ADD DUP2 ADD MLOAD SWAP2 ADD SWAP1 PUSH1 0x1 PUSH1 0xA0 PUSH1 0x2 EXP SUB AND JUMPDEST SWAP3 SWAP2 POP POP JUMP JUMPDEST PUSH1 0x0 PUSH2 0xC85 DUP4 DUP4 PUSH2 0xD64 JUMP JUMPDEST SWAP4 SWAP3 POP POP POP JUMP JUMPDEST PUSH1 0x60 PUSH1 0x0 PUSH2 0xC9A DUP5 DUP5 PUSH2 0xC79 JUMP JUMPDEST SWAP1 POP PUSH1 0x20 DUP4 ADD SWAP3 POP DUP1 DUP4 ADD DUP5 MLOAD LT ISZERO PUSH1 0x60 PUSH1 0x40 MLOAD SWAP1 DUP2 ADD PUSH1 0x40 MSTORE DUP1 PUSH1 0x2B DUP2 MSTORE PUSH1 0x20 ADD PUSH1 0x0 DUP1 MLOAD PUSH1 0x20 PUSH2 0x1525 DUP4 CODECOPY DUP2 MLOAD SWAP2 MSTORE DUP2 MSTORE PUSH1 0x20 ADD PUSH1 0xA9 PUSH1 0x2 EXP PUSH11 0x38BAB0B6103A3790199917 MUL DUP2 MSTORE POP SWAP1 ISZERO ISZERO PUSH2 0xD08 JUMPI PUSH1 0x40 MLOAD PUSH1 0xE5 PUSH1 0x2 EXP PUSH3 0x461BCD MUL DUP2 MSTORE PUSH1 0x4 ADD PUSH2 0x245 SWAP2 SWAP1 PUSH2 0x13E1 JUMP JUMPDEST POP DUP1 PUSH1 0x40 MLOAD SWAP1 DUP1 DUP3 MSTORE DUP1 PUSH1 0x1F ADD PUSH1 0x1F NOT AND PUSH1 0x20 ADD DUP3 ADD PUSH1 0x40 MSTORE DUP1 ISZERO PUSH2 0xD37 JUMPI DUP2 PUSH1 0x20 ADD PUSH1 0x20 DUP3 MUL DUP1 CODESIZE DUP4 CODECOPY ADD SWAP1 POP JUMPDEST POP SWAP2 POP PUSH2 0xD5D PUSH2 0xD46 DUP4 PUSH2 0x8E4 JUMP JUMPDEST PUSH1 0x20 ADD DUP5 PUSH2 0xD53 DUP8 PUSH2 0x8E4 JUMP JUMPDEST ADD PUSH1 0x20 ADD DUP4 PUSH2 0xDD7 JUMP JUMPDEST POP SWAP3 SWAP2 POP POP JUMP JUMPDEST PUSH1 0x0 DUP2 PUSH1 0x20 ADD DUP4 MLOAD LT ISZERO PUSH1 0x60 PUSH1 0x40 MLOAD SWAP1 DUP2 ADD PUSH1 0x40 MSTORE DUP1 PUSH1 0x2B DUP2 MSTORE PUSH1 0x20 ADD PUSH1 0x0 DUP1 MLOAD PUSH1 0x20 PUSH2 0x1525 DUP4 CODECOPY DUP2 MLOAD SWAP2 MSTORE DUP2 MSTORE PUSH1 0x20 ADD PUSH1 0xA9 PUSH1 0x2 EXP PUSH11 0x38BAB0B6103A3790199917 MUL DUP2 MSTORE POP SWAP1 ISZERO ISZERO PUSH2 0xDCD JUMPI PUSH1 0x40 MLOAD PUSH1 0xE5 PUSH1 0x2 EXP PUSH3 0x461BCD MUL DUP2 MSTORE PUSH1 0x4 ADD PUSH2 0x245 SWAP2 SWAP1 PUSH2 0x13E1 JUMP JUMPDEST POP POP ADD PUSH1 0x20 ADD MLOAD SWAP1 JUMP JUMPDEST PUSH1 0x20 DUP2 LT ISZERO PUSH2 0xE01 JUMPI PUSH1 0x1 DUP2 PUSH1 0x20 SUB PUSH2 0x100 EXP SUB DUP1 NOT DUP4 MLOAD AND DUP2 DUP6 MLOAD AND DUP1 DUP3 OR DUP7 MSTORE POP POP POP PUSH2 0xE78 JUMP JUMPDEST DUP3 DUP3 EQ ISZERO PUSH2 0xE0E JUMPI PUSH2 0xE78 JUMP JUMPDEST DUP3 DUP3 GT ISZERO PUSH2 0xE48 JUMPI PUSH1 0x20 DUP2 SUB SWAP1 POP DUP1 DUP3 ADD DUP2 DUP5 ADD DUP2 MLOAD JUMPDEST DUP3 DUP6 LT ISZERO PUSH2 0xE40 JUMPI DUP5 MLOAD DUP7 MSTORE PUSH1 0x20 SWAP6 DUP7 ADD SWAP6 SWAP1 SWAP5 ADD SWAP4 PUSH2 0xE25 JUMP JUMPDEST SWAP1 MSTORE POP PUSH2 0xE78 JUMP JUMPDEST PUSH1 0x20 DUP2 SUB SWAP1 POP DUP1 DUP3 ADD DUP2 DUP5 ADD DUP4 MLOAD JUMPDEST DUP3 DUP6 LT ISZERO PUSH2 0xE73 JUMPI DUP3 MLOAD DUP3 MSTORE PUSH1 0x1F NOT SWAP3 DUP4 ADD SWAP3 SWAP1 SWAP2 ADD SWAP1 PUSH2 0xE57 JUMP JUMPDEST DUP6 MSTORE POP POP JUMPDEST POP POP POP JUMP JUMPDEST DUP2 SLOAD DUP2 DUP4 SSTORE DUP2 DUP2 GT ISZERO PUSH2 0xE78 JUMPI PUSH1 0x0 DUP4 DUP2 MSTORE PUSH1 0x20 SWAP1 KECCAK256 PUSH2 0xE78 SWAP2 DUP2 ADD SWAP1 DUP4 ADD PUSH2 0x8E4 SWAP2 SWAP1 JUMPDEST DUP1 DUP3 GT ISZERO PUSH2 0xEB6 JUMPI PUSH1 0x0 DUP2 SSTORE PUSH1 0x1 ADD PUSH2 0xEA2 JUMP JUMPDEST POP SWAP1 JUMP JUMPDEST PUSH1 0x0 PUSH2 0xC85 DUP3 CALLDATALOAD PUSH2 0x1487 JUMP JUMPDEST PUSH1 0x0 PUSH1 0x1F DUP3 ADD DUP4 SGT PUSH2 0xED7 JUMPI PUSH1 0x0 DUP1 REVERT JUMPDEST DUP2 CALLDATALOAD PUSH2 0xEEA PUSH2 0xEE5 DUP3 PUSH2 0x1436 JUMP JUMPDEST PUSH2 0x1410 JUMP JUMPDEST SWAP2 POP DUP2 DUP2 DUP4 MSTORE PUSH1 0x20 DUP5 ADD SWAP4 POP PUSH1 0x20 DUP2 ADD SWAP1 POP DUP4 DUP6 PUSH1 0x20 DUP5 MUL DUP3 ADD GT ISZERO PUSH2 0xF0F JUMPI PUSH1 0x0 DUP1 REVERT JUMPDEST PUSH1 0x0 JUMPDEST DUP4 DUP2 LT ISZERO PUSH2 0xF3B JUMPI DUP2 PUSH2 0xF25 DUP9 DUP3 PUSH2 0xEBA JUMP JUMPDEST DUP5 MSTORE POP PUSH1 0x20 SWAP3 DUP4 ADD SWAP3 SWAP2 SWAP1 SWAP2 ADD SWAP1 PUSH1 0x1 ADD PUSH2 0xF12 JUMP JUMPDEST POP POP POP POP SWAP3 SWAP2 POP POP JUMP JUMPDEST PUSH1 0x0 PUSH1 0x1F DUP3 ADD DUP4 SGT PUSH2 0xF56 JUMPI PUSH1 0x0 DUP1 REVERT JUMPDEST DUP2 CALLDATALOAD PUSH2 0xF64 PUSH2 0xEE5 DUP3 PUSH2 0x1436 JUMP JUMPDEST DUP2 DUP2 MSTORE PUSH1 0x20 SWAP4 DUP5 ADD SWAP4 SWAP1 SWAP3 POP DUP3 ADD DUP4 PUSH1 0x0 JUMPDEST DUP4 DUP2 LT ISZERO PUSH2 0xF3B JUMPI DUP2 CALLDATALOAD DUP7 ADD PUSH2 0xF8C DUP9 DUP3 PUSH2 0x105A JUMP JUMPDEST DUP5 MSTORE POP PUSH1 0x20 SWAP3 DUP4 ADD SWAP3 SWAP2 SWAP1 SWAP2 ADD SWAP1 PUSH1 0x1 ADD PUSH2 0xF76 JUMP JUMPDEST PUSH1 0x0 PUSH1 0x1F DUP3 ADD DUP4 SGT PUSH2 0xFB3 JUMPI PUSH1 0x0 DUP1 REVERT JUMPDEST DUP2 CALLDATALOAD PUSH2 0xFC1 PUSH2 0xEE5 DUP3 PUSH2 0x1436 JUMP JUMPDEST SWAP2 POP DUP2 DUP2 DUP4 MSTORE PUSH1 0x20 DUP5 ADD SWAP4 POP PUSH1 0x20 DUP2 ADD SWAP1 POP DUP4 DUP6 PUSH1 0x20 DUP5 MUL DUP3 ADD GT ISZERO PUSH2 0xFE6 JUMPI PUSH1 0x0 DUP1 REVERT JUMPDEST PUSH1 0x0 JUMPDEST DUP4 DUP2 LT ISZERO PUSH2 0xF3B JUMPI DUP2 PUSH2 0xFFC DUP9 DUP3 PUSH2 0x10A9 JUMP JUMPDEST DUP5 MSTORE POP PUSH1 0x20 SWAP3 DUP4 ADD SWAP3 SWAP2 SWAP1 SWAP2 ADD SWAP1 PUSH1 0x1 ADD PUSH2 0xFE9 JUMP JUMPDEST PUSH1 0x0 DUP1 PUSH1 0x1F DUP4 ADD DUP5 SGT PUSH2 0x1024 JUMPI PUSH1 0x0 DUP1 REVERT JUMPDEST POP DUP2 CALLDATALOAD PUSH1 0x1 PUSH1 0x40 PUSH1 0x2 EXP SUB DUP2 GT ISZERO PUSH2 0x103B JUMPI PUSH1 0x0 DUP1 REVERT JUMPDEST PUSH1 0x20 DUP4 ADD SWAP2 POP DUP4 PUSH1 0x1 DUP3 MUL DUP4 ADD GT ISZERO PUSH2 0x1053 JUMPI PUSH1 0x0 DUP1 REVERT JUMPDEST SWAP3 POP SWAP3 SWAP1 POP JUMP JUMPDEST PUSH1 0x0 PUSH1 0x1F DUP3 ADD DUP4 SGT PUSH2 0x106B JUMPI PUSH1 0x0 DUP1 REVERT JUMPDEST DUP2 CALLDATALOAD PUSH2 0x1079 PUSH2 0xEE5 DUP3 PUSH2 0x1456 JUMP JUMPDEST SWAP2 POP DUP1 DUP3 MSTORE PUSH1 0x20 DUP4 ADD PUSH1 0x20 DUP4 ADD DUP6 DUP4 DUP4 ADD GT ISZERO PUSH2 0x1095 JUMPI PUSH1 0x0 DUP1 REVERT JUMPDEST PUSH2 0x10A0 DUP4 DUP3 DUP5 PUSH2 0x149E JUMP JUMPDEST POP POP POP SWAP3 SWAP2 POP POP JUMP JUMPDEST PUSH1 0x0 PUSH2 0xC85 DUP3 CALLDATALOAD PUSH2 0x8E4 JUMP JUMPDEST PUSH1 0x0 PUSH1 0x20 DUP3 DUP5 SUB SLT ISZERO PUSH2 0x10C7 JUMPI PUSH1 0x0 DUP1 REVERT JUMPDEST PUSH1 0x0 PUSH2 0x10D3 DUP5 DUP5 PUSH2 0xEBA JUMP JUMPDEST SWAP5 SWAP4 POP POP POP POP JUMP JUMPDEST PUSH1 0x0 DUP1 PUSH1 0x40 DUP4 DUP6 SUB SLT ISZERO PUSH2 0x10EE JUMPI PUSH1 0x0 DUP1 REVERT JUMPDEST PUSH1 0x0 PUSH2 0x10FA DUP6 DUP6 PUSH2 0xEBA JUMP JUMPDEST SWAP3 POP POP PUSH1 0x20 PUSH2 0x110B DUP6 DUP3 DUP7 ADD PUSH2 0x10A9 JUMP JUMPDEST SWAP2 POP POP SWAP3 POP SWAP3 SWAP1 POP JUMP JUMPDEST PUSH1 0x0 DUP1 PUSH1 0x0 DUP1 PUSH1 0x80 DUP6 DUP8 SUB SLT ISZERO PUSH2 0x112B JUMPI PUSH1 0x0 DUP1 REVERT JUMPDEST DUP5 CALLDATALOAD PUSH1 0x1 PUSH1 0x40 PUSH1 0x2 EXP SUB DUP2 GT ISZERO PUSH2 0x1141 JUMPI PUSH1 0x0 DUP1 REVERT JUMPDEST PUSH2 0x114D DUP8 DUP3 DUP9 ADD PUSH2 0xF45 JUMP JUMPDEST SWAP5 POP POP PUSH1 0x20 DUP6 ADD CALLDATALOAD PUSH1 0x1 PUSH1 0x40 PUSH1 0x2 EXP SUB DUP2 GT ISZERO PUSH2 0x1169 JUMPI PUSH1 0x0 DUP1 REVERT JUMPDEST PUSH2 0x1175 DUP8 DUP3 DUP9 ADD PUSH2 0xEC6 JUMP JUMPDEST SWAP4 POP POP PUSH1 0x40 DUP6 ADD CALLDATALOAD PUSH1 0x1 PUSH1 0x40 PUSH1 0x2 EXP SUB DUP2 GT ISZERO PUSH2 0x1191 JUMPI PUSH1 0x0 DUP1 REVERT JUMPDEST PUSH2 0x119D DUP8 DUP3 DUP9 ADD PUSH2 0xEC6 JUMP JUMPDEST SWAP3 POP POP PUSH1 0x60 DUP6 ADD CALLDATALOAD PUSH1 0x1 PUSH1 0x40 PUSH1 0x2 EXP SUB DUP2 GT ISZERO PUSH2 0x11B9 JUMPI PUSH1 0x0 DUP1 REVERT JUMPDEST PUSH2 0x11C5 DUP8 DUP3 DUP9 ADD PUSH2 0xFA2 JUMP JUMPDEST SWAP2 POP POP SWAP3 SWAP6 SWAP2 SWAP5 POP SWAP3 POP JUMP JUMPDEST PUSH1 0x0 DUP1 PUSH1 0x0 DUP1 PUSH1 0x0 PUSH1 0x80 DUP7 DUP9 SUB SLT ISZERO PUSH2 0x11E9 JUMPI PUSH1 0x0 DUP1 REVERT JUMPDEST DUP6 CALLDATALOAD PUSH1 0x1 PUSH1 0x40 PUSH1 0x2 EXP SUB DUP2 GT ISZERO PUSH2 0x11FF JUMPI PUSH1 0x0 DUP1 REVERT JUMPDEST PUSH2 0x120B DUP9 DUP3 DUP10 ADD PUSH2 0x1012 JUMP JUMPDEST SWAP6 POP SWAP6 POP POP PUSH1 0x20 PUSH2 0x121E DUP9 DUP3 DUP10 ADD PUSH2 0xEBA JUMP JUMPDEST SWAP4 POP POP PUSH1 0x40 PUSH2 0x122F DUP9 DUP3 DUP10 ADD PUSH2 0xEBA JUMP JUMPDEST SWAP3 POP POP PUSH1 0x60 PUSH2 0x1240 DUP9 DUP3 DUP10 ADD PUSH2 0x10A9 JUMP JUMPDEST SWAP2 POP POP SWAP3 SWAP6 POP SWAP3 SWAP6 SWAP1 SWAP4 POP JUMP JUMPDEST PUSH1 0x0 PUSH1 0x20 DUP3 DUP5 SUB SLT ISZERO PUSH2 0x125F JUMPI PUSH1 0x0 DUP1 REVERT JUMPDEST PUSH1 0x0 PUSH2 0x10D3 DUP5 DUP5 PUSH2 0x10A9 JUMP JUMPDEST PUSH2 0x1274 DUP2 PUSH2 0x1487 JUMP JUMPDEST DUP3 MSTORE POP POP JUMP JUMPDEST PUSH1 0x0 PUSH2 0x1285 DUP3 PUSH2 0x1483 JUMP JUMPDEST DUP1 DUP5 MSTORE PUSH1 0x20 DUP5 ADD SWAP4 POP PUSH2 0x1297 DUP4 PUSH2 0x147D JUMP JUMPDEST PUSH1 0x0 JUMPDEST DUP3 DUP2 LT ISZERO PUSH2 0x12C7 JUMPI PUSH2 0x12AD DUP7 DUP4 MLOAD PUSH2 0x126B JUMP JUMPDEST PUSH2 0x12B6 DUP3 PUSH2 0x147D JUMP JUMPDEST PUSH1 0x20 SWAP7 SWAP1 SWAP7 ADD SWAP6 SWAP2 POP PUSH1 0x1 ADD PUSH2 0x129A JUMP JUMPDEST POP SWAP4 SWAP5 SWAP4 POP POP POP POP JUMP JUMPDEST PUSH2 0x1274 DUP2 PUSH2 0x1493 JUMP JUMPDEST PUSH1 0x0 PUSH2 0x12E5 DUP3 PUSH2 0x1483 JUMP JUMPDEST DUP1 DUP5 MSTORE PUSH2 0x12F9 DUP2 PUSH1 0x20 DUP7 ADD PUSH1 0x20 DUP7 ADD PUSH2 0x14AA JUMP JUMPDEST PUSH2 0x1302 DUP2 PUSH2 0x14DA JUMP JUMPDEST SWAP1 SWAP4 ADD PUSH1 0x20 ADD SWAP4 SWAP3 POP POP POP JUMP JUMPDEST PUSH1 0x33 DUP2 MSTORE PUSH32 0x4F6E6C7920636F6E7472616374206F776E657220697320616C6C6F7765642074 PUSH1 0x20 DUP3 ADD MSTORE PUSH1 0x69 PUSH1 0x2 EXP PUSH19 0x379031B0B636103A3434B99036B2BA3437B217 MUL PUSH1 0x40 DUP3 ADD MSTORE PUSH1 0x60 ADD SWAP1 JUMP JUMPDEST PUSH2 0x1274 DUP2 PUSH2 0x8E4 JUMP JUMPDEST PUSH2 0x1274 DUP2 PUSH2 0x1498 JUMP JUMPDEST PUSH1 0x20 DUP2 ADD PUSH2 0xC73 DUP3 DUP5 PUSH2 0x126B JUMP JUMPDEST PUSH1 0x80 DUP2 ADD PUSH2 0x138C DUP3 DUP8 PUSH2 0x126B JUMP JUMPDEST PUSH2 0x1399 PUSH1 0x20 DUP4 ADD DUP7 PUSH2 0x126B JUMP JUMPDEST PUSH2 0x13A6 PUSH1 0x40 DUP4 ADD DUP6 PUSH2 0x135E JUMP JUMPDEST DUP2 DUP2 SUB PUSH1 0x60 DUP4 ADD MSTORE PUSH2 0x13B8 DUP2 DUP5 PUSH2 0x12DA JUMP JUMPDEST SWAP7 SWAP6 POP POP POP POP POP POP JUMP JUMPDEST PUSH1 0x20 DUP1 DUP3 MSTORE DUP2 ADD PUSH2 0xC85 DUP2 DUP5 PUSH2 0x127A JUMP JUMPDEST PUSH1 0x20 DUP2 ADD PUSH2 0xC73 DUP3 DUP5 PUSH2 0x12D1 JUMP JUMPDEST PUSH1 0x20 DUP1 DUP3 MSTORE DUP2 ADD PUSH2 0xC85 DUP2 DUP5 PUSH2 0x12DA JUMP JUMPDEST PUSH1 0x20 DUP1 DUP3 MSTORE DUP2 ADD PUSH2 0xC73 DUP2 PUSH2 0x130F JUMP JUMPDEST PUSH1 0x20 DUP2 ADD PUSH2 0xC73 DUP3 DUP5 PUSH2 0x1367 JUMP JUMPDEST PUSH1 0x40 MLOAD DUP2 DUP2 ADD PUSH1 0x1 PUSH1 0x40 PUSH1 0x2 EXP SUB DUP2 GT DUP3 DUP3 LT OR ISZERO PUSH2 0x142E JUMPI PUSH1 0x0 DUP1 REVERT JUMPDEST PUSH1 0x40 MSTORE SWAP2 SWAP1 POP JUMP JUMPDEST PUSH1 0x0 PUSH1 0x1 PUSH1 0x40 PUSH1 0x2 EXP SUB DUP3 GT ISZERO PUSH2 0x144C JUMPI PUSH1 0x0 DUP1 REVERT JUMPDEST POP PUSH1 0x20 SWAP1 DUP2 MUL ADD SWAP1 JUMP JUMPDEST PUSH1 0x0 PUSH1 0x1 PUSH1 0x40 PUSH1 0x2 EXP SUB DUP3 GT ISZERO PUSH2 0x146C JUMPI PUSH1 0x0 DUP1 REVERT JUMPDEST POP PUSH1 0x20 PUSH1 0x1F SWAP2 SWAP1 SWAP2 ADD PUSH1 0x1F NOT AND ADD SWAP1 JUMP JUMPDEST PUSH1 0x20 ADD SWAP1 JUMP JUMPDEST MLOAD SWAP1 JUMP JUMPDEST PUSH1 0x1 PUSH1 0xA0 PUSH1 0x2 EXP SUB AND SWAP1 JUMP JUMPDEST ISZERO ISZERO SWAP1 JUMP JUMPDEST PUSH1 0xFF AND SWAP1 JUMP JUMPDEST DUP3 DUP2 DUP4 CALLDATACOPY POP PUSH1 0x0 SWAP2 ADD MSTORE JUMP JUMPDEST PUSH1 0x0 JUMPDEST DUP4 DUP2 LT ISZERO PUSH2 0x14C5 JUMPI DUP2 DUP2 ADD MLOAD DUP4 DUP3 ADD MSTORE PUSH1 0x20 ADD PUSH2 0x14AD JUMP JUMPDEST DUP4 DUP2 GT ISZERO PUSH2 0x14D4 JUMPI PUSH1 0x0 DUP5 DUP5 ADD MSTORE JUMPDEST POP POP POP POP JUMP JUMPDEST PUSH1 0x1F ADD PUSH1 0x1F NOT AND SWAP1 JUMP STOP MSTORE8 PUSH6 0x6E646572206E PUSH16 0x7420617574686F72697A656420746F20 PUSH4 0x616C6C20 PUSH21 0x681F32C1B084E2DE0713B8FB16BD46BB9DF710A3DB 0xea 0xe2 RETURN 0xca SWAP4 0xaf 0x46 0xe0 AND 0xdc 0xc6 0xb0 0x4c PUSH6 0x6E677468206D PUSH22 0x73742062652067726561746572207468616E206F7220 PUSH6 0xA265627A7A72 ADDRESS PC KECCAK256 SWAP15 SLOAD PUSH5 0x439CD25108 SUB 0x4f 0xae RETURNDATACOPY 0xcc PUSH18 0x8FB16047F735A0689C9BEAC09F39E5EF478 PUSH13 0x6578706572696D656E74616CF5 STOP CALLDATACOPY "
			}
		}
	},
	"sourceTreeHashHex": "0x8e38d7b7756a357d1491bcaefeca8bb88ed066a10414b4823b919751e5bef4c5",
	"compiler": {
		"name": "solc",
		"version": "0.4.24",
		"settings": {
			"optimizer": {
				"enabled": true,
				"runs": 0
			},
			"outputSelection": {
				"*": {
					"*": [
						"abi",
						"evm.bytecode.object",
						"evm.bytecode.sourceMap",
						"evm.deployedBytecode.object",
						"evm.deployedBytecode.sourceMap"
					]
				}
			}
		}
	}
}