{
	"schemaVersion": "2.0.0",
	"contractName": "TestLibBytes",
	"compilerOutput": {
		"abi": [
			{
				"constant": true,
				"inputs": [
					{
						"name": "lhs",
						"type": "bytes"
					},
					{
						"name": "rhs",
						"type": "bytes"
					}
				],
				"name": "publicAreBytesEqual",
				"outputs": [
					{
						"name": "equal",
						"type": "bool"
					}
				],
				"payable": false,
				"stateMutability": "pure",
				"type": "function"
			},
			{
				"constant": true,
				"inputs": [
					{
						"name": "b",
						"type": "bytes"
					},
					{
						"name": "index",
						"type": "uint256"
					}
				],
				"name": "publicReadBytes",
				"outputs": [
					{
						"name": "result",
						"type": "bytes"
					}
				],
				"payable": false,
				"stateMutability": "pure",
				"type": "function"
			},
			{
				"constant": true,
				"inputs": [
					{
						"name": "b",
						"type": "bytes"
					},
					{
						"name": "index",
						"type": "uint256"
					},
					{
						"name": "input",
						"type": "address"
					}
				],
				"name": "publicWriteAddress",
				"outputs": [
					{
						"name": "",
						"type": "bytes"
					}
				],
				"payable": false,
				"stateMutability": "pure",
				"type": "function"
			},
			{
				"constant": true,
				"inputs": [
					{
						"name": "b",
						"type": "bytes"
					},
					{
						"name": "index",
						"type": "uint256"
					},
					{
						"name": "input",
						"type": "bytes"
					}
				],
				"name": "publicWriteBytes",
				"outputs": [
					{
						"name": "",
						"type": "bytes"
					}
				],
				"payable": false,
				"stateMutability": "pure",
				"type": "function"
			},
			{
				"constant": true,
				"inputs": [
					{
						"name": "b",
						"type": "bytes"
					},
					{
						"name": "index",
						"type": "uint256"
					}
				],
				"name": "publicReadAddress",
				"outputs": [
					{
						"name": "result",
						"type": "address"
					}
				],
				"payable": false,
				"stateMutability": "pure",
				"type": "function"
			},
			{
				"constant": true,
				"inputs": [
					{
						"name": "b",
						"type": "bytes"
					},
					{
						"name": "index",
						"type": "uint256"
					},
					{
						"name": "input",
						"type": "bytes32"
					}
				],
				"name": "publicWriteBytes32",
				"outputs": [
					{
						"name": "",
						"type": "bytes"
					}
				],
				"payable": false,
				"stateMutability": "pure",
				"type": "function"
			},
			{
				"constant": true,
				"inputs": [
					{
						"name": "b",
						"type": "bytes"
					},
					{
						"name": "index",
						"type": "uint256"
					},
					{
						"name": "input",
						"type": "uint256"
					}
				],
				"name": "publicWriteUint256",
				"outputs": [
					{
						"name": "",
						"type": "bytes"
					}
				],
				"payable": false,
				"stateMutability": "pure",
				"type": "function"
			},
			{
				"constant": true,
				"inputs": [
					{
						"name": "b",
						"type": "bytes"
					},
					{
						"name": "index",
						"type": "uint256"
					}
				],
				"name": "publicReadBytes32",
				"outputs": [
					{
						"name": "result",
						"type": "bytes32"
					}
				],
				"payable": false,
				"stateMutability": "pure",
				"type": "function"
			},
			{
				"constant": true,
				"inputs": [
					{
						"name": "b",
						"type": "bytes"
					},
					{
						"name": "index",
						"type": "uint256"
					}
				],
				"name": "publicReadUint256",
				"outputs": [
					{
						"name": "result",
						"type": "uint256"
					}
				],
				"payable": false,
				"stateMutability": "pure",
				"type": "function"
			}
		],
		"evm": {
			"bytecode": {
				"linkReferences": {},
				"object": "0x608060405234801561001057600080fd5b50610aa7806100206000396000f30060806040526004361061007f5763ffffffff60e060020a6000350416630945c63b811461008457806335997eaf146100ba5780633f2a25ec146100e75780637d0d772f1461010757806382e2fa241461012757806384f8775814610154578063b79650a414610174578063be766f1b14610194578063e3a85ce4146101c1575b600080fd5b34801561009057600080fd5b506100a461009f36600461073b565b6101e1565b6040516100b19190610978565b60405180910390f35b3480156100c657600080fd5b506100da6100d53660046107a2565b6101f6565b6040516100b19190610994565b3480156100f357600080fd5b506100da6101023660046107e8565b610202565b34801561011357600080fd5b506100da6101223660046108a4565b610217565b34801561013357600080fd5b506101476101423660046107a2565b610224565b6040516100b1919061096a565b34801561016057600080fd5b506100da61016f36600461084b565b610230565b34801561018057600080fd5b506100da61018f36600461084b565b61023d565b3480156101a057600080fd5b506101b46101af3660046107a2565b61024a565b6040516100b19190610986565b3480156101cd57600080fd5b506101b46101dc3660046107a2565b610256565b60006101ed8383610262565b90505b92915050565b60606101ed83836102a9565b606061020f84848461038a565b509192915050565b606061020f84848461040b565b60006101ed838361049f565b606061020f84848461051b565b606061020f84848461058b565b60006101ed8383610596565b60006101ed838361024a565b60006020601f8451010460018101905060005b818110156102a157602081028581015190850151808214945084610297578392505b5050600101610275565b505092915050565b606060006102b7848461024a565b905060208301925080830184511015606060405190810160405280602b8152602001600080516020610a4e833981519152815260200160a960020a6a38bab0b6103a37901999170281525090151561032e5760405160e560020a62461bcd0281526004016103259190610994565b60405180910390fd5b50806040519080825280601f01601f19166020018201604052801561035d578160200160208202803883390190505b50915061038361036c83610609565b6020018461037987610609565b016020018361060c565b5092915050565b8160140183511015606060405190810160405280602b8152602001600080516020610a4e833981519152815260200160a960020a6a38bab0b6103a3790191817028152509015156103f15760405160e560020a62461bcd0281526004016103259190610994565b5091016014018051600160a060020a031916919091189052565b8051826020010183511015606060405190810160405280602b8152602001600080516020610a4e833981519152815260200160a960020a6a38bab0b6103a3790199917028152509015156104755760405160e560020a62461bcd0281526004016103259190610994565b5061049a8261048385610609565b0160200161049083610609565b835160200161060c565b505050565b60008160140183511015606060405190810160405280602b8152602001600080516020610a4e833981519152815260200160a960020a6a38bab0b6103a3790191817028152509015156105085760405160e560020a62461bcd0281526004016103259190610994565b50500160140151600160a060020a031690565b8160200183511015606060405190810160405280602b8152602001600080516020610a4e833981519152815260200160a960020a6a38bab0b6103a3790199917028152509015156105825760405160e560020a62461bcd0281526004016103259190610994565b50910160200152565b61049a83838361051b565b60008160200183511015606060405190810160405280602b8152602001600080516020610a4e833981519152815260200160a960020a6a38bab0b6103a3790199917028152509015156105ff5760405160e560020a62461bcd0281526004016103259190610994565b5050016020015190565b90565b6020811015610636576001816020036101000a03801983511681855116808217865250505061049a565b828214156106435761049a565b828211156106895760208104602082039150818301828501815160005b8481101561067e578651885260209788019790960195600101610660565b5090525061049a9050565b60208104602082039150818301828501845160005b848110156106bd5783518352601f19938401939092019160010161069e565b508652505050505050565b60006106d482356109f6565b9392505050565b60006106d48235610609565b6000601f820183136106f857600080fd5b813561070b610706826109cb565b6109a5565b9150808252602083016020830185838301111561072757600080fd5b610732838284610a07565b50505092915050565b6000806040838503121561074e57600080fd5b82356001604060020a0381111561076457600080fd5b610770858286016106e7565b92505060208301356001604060020a0381111561078c57600080fd5b610798858286016106e7565b9150509250929050565b600080604083850312156107b557600080fd5b82356001604060020a038111156107cb57600080fd5b6107d7858286016106e7565b9250506020610798858286016106db565b6000806000606084860312156107fd57600080fd5b83356001604060020a0381111561081357600080fd5b61081f868287016106e7565b9350506020610830868287016106db565b9250506040610841868287016106c8565b9150509250925092565b60008060006060848603121561086057600080fd5b83356001604060020a0381111561087657600080fd5b610882868287016106e7565b9350506020610893868287016106db565b9250506040610841868287016106db565b6000806000606084860312156108b957600080fd5b83356001604060020a038111156108cf57600080fd5b6108db868287016106e7565b93505060206108ec868287016106db565b92505060408401356001604060020a0381111561090857600080fd5b610841868287016106e7565b61091d816109f6565b82525050565b61091d81610a02565b61091d81610609565b6000610940826109f2565b808452610954816020860160208601610a13565b61095d81610a43565b9093016020019392505050565b602081016101f08284610914565b602081016101f08284610923565b602081016101f0828461092c565b602080825281016106d48184610935565b6040518181016001604060020a03811182821017156109c357600080fd5b604052919050565b60006001604060020a038211156109e157600080fd5b506020601f91909101601f19160190565b5190565b600160a060020a031690565b151590565b82818337506000910152565b60005b83811015610a2e578181015183820152602001610a16565b83811115610a3d576000848401525b50505050565b601f01601f19169056004c656e677468206d7573742062652067726561746572207468616e206f722065a265627a7a72305820538589b2840a777c957231875333497faebc54a827226e8977ba68722a5935ce6c6578706572696d656e74616cf50037",
				"opcodes": "PUSH1 0x80 PUSH1 0x40 MSTORE CALLVALUE DUP1 ISZERO PUSH2 0x10 JUMPI PUSH1 0x0 DUP1 REVERT JUMPDEST POP PUSH2 0xAA7 DUP1 PUSH2 0x20 PUSH1 0x0 CODECOPY PUSH1 0x0 RETURN STOP PUSH1 0x80 PUSH1 0x40 MSTORE PUSH1 0x4 CALLDATASIZE LT PUSH2 0x7F JUMPI PUSH4 0xFFFFFFFF PUSH1 0xE0 PUSH1 0x2 EXP PUSH1 0x0 CALLDATALOAD DIV AND PUSH4 0x945C63B DUP2 EQ PUSH2 0x84 JUMPI DUP1 PUSH4 0x35997EAF EQ PUSH2 0xBA JUMPI DUP1 PUSH4 0x3F2A25EC EQ PUSH2 0xE7 JUMPI DUP1 PUSH4 0x7D0D772F EQ PUSH2 0x107 JUMPI DUP1 PUSH4 0x82E2FA24 EQ PUSH2 0x127 JUMPI DUP1 PUSH4 0x84F87758 EQ PUSH2 0x154 JUMPI DUP1 PUSH4 0xB79650A4 EQ PUSH2 0x174 JUMPI DUP1 PUSH4 0xBE766F1B EQ PUSH2 0x194 JUMPI DUP1 PUSH4 0xE3A85CE4 EQ PUSH2 0x1C1 JUMPI JUMPDEST PUSH1 0x0 DUP1 REVERT JUMPDEST CALLVALUE DUP1 ISZERO PUSH2 0x90 JUMPI PUSH1 0x0 DUP1 REVERT JUMPDEST POP PUSH2 0xA4 PUSH2 0x9F CALLDATASIZE PUSH1 0x4 PUSH2 0x73B JUMP JUMPDEST PUSH2 0x1E1 JUMP JUMPDEST PUSH1 0x40 MLOAD PUSH2 0xB1 SWAP2 SWAP1 PUSH2 0x978 JUMP JUMPDEST PUSH1 0x40 MLOAD DUP1 SWAP2 SUB SWAP1 RETURN JUMPDEST CALLVALUE DUP1 ISZERO PUSH2 0xC6 JUMPI PUSH1 0x0 DUP1 REVERT JUMPDEST POP PUSH2 0xDA PUSH2 0xD5 CALLDATASIZE PUSH1 0x4 PUSH2 0x7A2 JUMP JUMPDEST PUSH2 0x1F6 JUMP JUMPDEST PUSH1 0x40 MLOAD PUSH2 0xB1 SWAP2 SWAP1 PUSH2 0x994 JUMP JUMPDEST CALLVALUE DUP1 ISZERO PUSH2 0xF3 JUMPI PUSH1 0x0 DUP1 REVERT JUMPDEST POP PUSH2 0xDA PUSH2 0x102 CALLDATASIZE PUSH1 0x4 PUSH2 0x7E8 JUMP JUMPDEST PUSH2 0x202 JUMP JUMPDEST CALLVALUE DUP1 ISZERO PUSH2 0x113 JUMPI PUSH1 0x0 DUP1 REVERT JUMPDEST POP PUSH2 0xDA PUSH2 0x122 CALLDATASIZE PUSH1 0x4 PUSH2 0x8A4 JUMP JUMPDEST PUSH2 0x217 JUMP JUMPDEST CALLVALUE DUP1 ISZERO PUSH2 0x133 JUMPI PUSH1 0x0 DUP1 REVERT JUMPDEST POP PUSH2 0x147 PUSH2 0x142 CALLDATASIZE PUSH1 0x4 PUSH2 0x7A2 JUMP JUMPDEST PUSH2 0x224 JUMP JUMPDEST PUSH1 0x40 MLOAD PUSH2 0xB1 SWAP2 SWAP1 PUSH2 0x96A JUMP JUMPDEST CALLVALUE DUP1 ISZERO PUSH2 0x160 JUMPI PUSH1 0x0 DUP1 REVERT JUMPDEST POP PUSH2 0xDA PUSH2 0x16F CALLDATASIZE PUSH1 0x4 PUSH2 0x84B JUMP JUMPDEST PUSH2 0x230 JUMP JUMPDEST CALLVALUE DUP1 ISZERO PUSH2 0x180 JUMPI PUSH1 0x0 DUP1 REVERT JUMPDEST POP PUSH2 0xDA PUSH2 0x18F CALLDATASIZE PUSH1 0x4 PUSH2 0x84B JUMP JUMPDEST PUSH2 0x23D JUMP JUMPDEST CALLVALUE DUP1 ISZERO PUSH2 0x1A0 JUMPI PUSH1 0x0 DUP1 REVERT JUMPDEST POP PUSH2 0x1B4 PUSH2 0x1AF CALLDATASIZE PUSH1 0x4 PUSH2 0x7A2 JUMP JUMPDEST PUSH2 0x24A JUMP JUMPDEST PUSH1 0x40 MLOAD PUSH2 0xB1 SWAP2 SWAP1 PUSH2 0x986 JUMP JUMPDEST CALLVALUE DUP1 ISZERO PUSH2 0x1CD JUMPI PUSH1 0x0 DUP1 REVERT JUMPDEST POP PUSH2 0x1B4 PUSH2 0x1DC CALLDATASIZE PUSH1 0x4 PUSH2 0x7A2 JUMP JUMPDEST PUSH2 0x256 JUMP JUMPDEST PUSH1 0x0 PUSH2 0x1ED DUP4 DUP4 PUSH2 0x262 JUMP JUMPDEST SWAP1 POP JUMPDEST SWAP3 SWAP2 POP POP JUMP JUMPDEST PUSH1 0x60 PUSH2 0x1ED DUP4 DUP4 PUSH2 0x2A9 JUMP JUMPDEST PUSH1 0x60 PUSH2 0x20F DUP5 DUP5 DUP5 PUSH2 0x38A JUMP JUMPDEST POP SWAP2 SWAP3 SWAP2 POP POP JUMP JUMPDEST PUSH1 0x60 PUSH2 0x20F DUP5 DUP5 DUP5 PUSH2 0x40B JUMP JUMPDEST PUSH1 0x0 PUSH2 0x1ED DUP4 DUP4 PUSH2 0x49F JUMP JUMPDEST PUSH1 0x60 PUSH2 0x20F DUP5 DUP5 DUP5 PUSH2 0x51B JUMP JUMPDEST PUSH1 0x60 PUSH2 0x20F DUP5 DUP5 DUP5 PUSH2 0x58B JUMP JUMPDEST PUSH1 0x0 PUSH2 0x1ED DUP4 DUP4 PUSH2 0x596 JUMP JUMPDEST PUSH1 0x0 PUSH2 0x1ED DUP4 DUP4 PUSH2 0x24A JUMP JUMPDEST PUSH1 0x0 PUSH1 0x20 PUSH1 0x1F DUP5 MLOAD ADD DIV PUSH1 0x1 DUP2 ADD SWAP1 POP PUSH1 0x0 JUMPDEST DUP2 DUP2 LT ISZERO PUSH2 0x2A1 JUMPI PUSH1 0x20 DUP2 MUL DUP6 DUP2 ADD MLOAD SWAP1 DUP6 ADD MLOAD DUP1 DUP3 EQ SWAP5 POP DUP5 PUSH2 0x297 JUMPI DUP4 SWAP3 POP JUMPDEST POP POP PUSH1 0x1 ADD PUSH2 0x275 JUMP JUMPDEST POP POP SWAP3 SWAP2 POP POP JUMP JUMPDEST PUSH1 0x60 PUSH1 0x0 PUSH2 0x2B7 DUP5 DUP5 PUSH2 0x24A JUMP JUMPDEST SWAP1 POP PUSH1 0x20 DUP4 ADD SWAP3 POP DUP1 DUP4 ADD DUP5 MLOAD LT ISZERO PUSH1 0x60 PUSH1 0x40 MLOAD SWAP1 DUP2 ADD PUSH1 0x40 MSTORE DUP1 PUSH1 0x2B DUP2 MSTORE PUSH1 0x20 ADD PUSH1 0x0 DUP1 MLOAD PUSH1 0x20 PUSH2 0xA4E DUP4 CODECOPY DUP2 MLOAD SWAP2 MSTORE DUP2 MSTORE PUSH1 0x20 ADD PUSH1 0xA9 PUSH1 0x2 EXP PUSH11 0x38BAB0B6103A3790199917 MUL DUP2 MSTORE POP SWAP1 ISZERO ISZERO PUSH2 0x32E JUMPI PUSH1 0x40 MLOAD PUSH1 0xE5 PUSH1 0x2 EXP PUSH3 0x461BCD MUL DUP2 MSTORE PUSH1 0x4 ADD PUSH2 0x325 SWAP2 SWAP1 PUSH2 0x994 JUMP JUMPDEST PUSH1 0x40 MLOAD DUP1 SWAP2 SUB SWAP1 REVERT JUMPDEST POP DUP1 PUSH1 0x40 MLOAD SWAP1 DUP1 DUP3 MSTORE DUP1 PUSH1 0x1F ADD PUSH1 0x1F NOT AND PUSH1 0x20 ADD DUP3 ADD PUSH1 0x40 MSTORE DUP1 ISZERO PUSH2 0x35D JUMPI DUP2 PUSH1 0x20 ADD PUSH1 0x20 DUP3 MUL DUP1 CODESIZE DUP4 CODECOPY ADD SWAP1 POP JUMPDEST POP SWAP2 POP PUSH2 0x383 PUSH2 0x36C DUP4 PUSH2 0x609 JUMP JUMPDEST PUSH1 0x20 ADD DUP5 PUSH2 0x379 DUP8 PUSH2 0x609 JUMP JUMPDEST ADD PUSH1 0x20 ADD DUP4 PUSH2 0x60C JUMP JUMPDEST POP SWAP3 SWAP2 POP POP JUMP JUMPDEST DUP2 PUSH1 0x14 ADD DUP4 MLOAD LT ISZERO PUSH1 0x60 PUSH1 0x40 MLOAD SWAP1 DUP2 ADD PUSH1 0x40 MSTORE DUP1 PUSH1 0x2B DUP2 MSTORE PUSH1 0x20 ADD PUSH1 0x0 DUP1 MLOAD PUSH1 0x20 PUSH2 0xA4E DUP4 CODECOPY DUP2 MLOAD SWAP2 MSTORE DUP2 MSTORE PUSH1 0x20 ADD PUSH1 0xA9 PUSH1 0x2 EXP PUSH11 0x38BAB0B6103A3790191817 MUL DUP2 MSTORE POP SWAP1 ISZERO ISZERO PUSH2 0x3F1 JUMPI PUSH1 0x40 MLOAD PUSH1 0xE5 PUSH1 0x2 EXP PUSH3 0x461BCD MUL DUP2 MSTORE PUSH1 0x4 ADD PUSH2 0x325 SWAP2 SWAP1 PUSH2 0x994 JUMP JUMPDEST POP SWAP2 ADD PUSH1 0x14 ADD DUP1 MLOAD PUSH1 0x1 PUSH1 0xA0 PUSH1 0x2 EXP SUB NOT AND SWAP2 SWAP1 SWAP2 XOR SWAP1 MSTORE JUMP JUMPDEST DUP1 MLOAD DUP3 PUSH1 0x20 ADD ADD DUP4 MLOAD LT ISZERO PUSH1 0x60 PUSH1 0x40 MLOAD SWAP1 DUP2 ADD PUSH1 0x40 MSTORE DUP1 PUSH1 0x2B DUP2 MSTORE PUSH1 0x20 ADD PUSH1 0x0 DUP1 MLOAD PUSH1 0x20 PUSH2 0xA4E DUP4 CODECOPY DUP2 MLOAD SWAP2 MSTORE DUP2 MSTORE PUSH1 0x20 ADD PUSH1 0xA9 PUSH1 0x2 EXP PUSH11 0x38BAB0B6103A3790199917 MUL DUP2 MSTORE POP SWAP1 ISZERO ISZERO PUSH2 0x475 JUMPI PUSH1 0x40 MLOAD PUSH1 0xE5 PUSH1 0x2 EXP PUSH3 0x461BCD MUL DUP2 MSTORE PUSH1 0x4 ADD PUSH2 0x325 SWAP2 SWAP1 PUSH2 0x994 JUMP JUMPDEST POP PUSH2 0x49A DUP3 PUSH2 0x483 DUP6 PUSH2 0x609 JUMP JUMPDEST ADD PUSH1 0x20 ADD PUSH2 0x490 DUP4 PUSH2 0x609 JUMP JUMPDEST DUP4 MLOAD PUSH1 0x20 ADD PUSH2 0x60C JUMP JUMPDEST POP POP POP JUMP JUMPDEST PUSH1 0x0 DUP2 PUSH1 0x14 ADD DUP4 MLOAD LT ISZERO PUSH1 0x60 PUSH1 0x40 MLOAD SWAP1 DUP2 ADD PUSH1 0x40 MSTORE DUP1 PUSH1 0x2B DUP2 MSTORE PUSH1 0x20 ADD PUSH1 0x0 DUP1 MLOAD PUSH1 0x20 PUSH2 0xA4E DUP4 CODECOPY DUP2 MLOAD SWAP2 MSTORE DUP2 MSTORE PUSH1 0x20 ADD PUSH1 0xA9 PUSH1 0x2 EXP PUSH11 0x38BAB0B6103A3790191817 MUL DUP2 MSTORE POP SWAP1 ISZERO ISZERO PUSH2 0x508 JUMPI PUSH1 0x40 MLOAD PUSH1 0xE5 PUSH1 0x2 EXP PUSH3 0x461BCD MUL DUP2 MSTORE PUSH1 0x4 ADD PUSH2 0x325 SWAP2 SWAP1 PUSH2 0x994 JUMP JUMPDEST POP POP ADD PUSH1 0x14 ADD MLOAD PUSH1 0x1 PUSH1 0xA0 PUSH1 0x2 EXP SUB AND SWAP1 JUMP JUMPDEST DUP2 PUSH1 0x20 ADD DUP4 MLOAD LT ISZERO PUSH1 0x60 PUSH1 0x40 MLOAD SWAP1 DUP2 ADD PUSH1 0x40 MSTORE DUP1 PUSH1 0x2B DUP2 MSTORE PUSH1 0x20 ADD PUSH1 0x0 DUP1 MLOAD PUSH1 0x20 PUSH2 0xA4E DUP4 CODECOPY DUP2 MLOAD SWAP2 MSTORE DUP2 MSTORE PUSH1 0x20 ADD PUSH1 0xA9 PUSH1 0x2 EXP PUSH11 0x38BAB0B6103A3790199917 MUL DUP2 MSTORE POP SWAP1 ISZERO ISZERO PUSH2 0x582 JUMPI PUSH1 0x40 MLOAD PUSH1 0xE5 PUSH1 0x2 EXP PUSH3 0x461BCD MUL DUP2 MSTORE PUSH1 0x4 ADD PUSH2 0x325 SWAP2 SWAP1 PUSH2 0x994 JUMP JUMPDEST POP SWAP2 ADD PUSH1 0x20 ADD MSTORE JUMP JUMPDEST PUSH2 0x49A DUP4 DUP4 DUP4 PUSH2 0x51B JUMP JUMPDEST PUSH1 0x0 DUP2 PUSH1 0x20 ADD DUP4 MLOAD LT ISZERO PUSH1 0x60 PUSH1 0x40 MLOAD SWAP1 DUP2 ADD PUSH1 0x40 MSTORE DUP1 PUSH1 0x2B DUP2 MSTORE PUSH1 0x20 ADD PUSH1 0x0 DUP1 MLOAD PUSH1 0x20 PUSH2 0xA4E DUP4 CODECOPY DUP2 MLOAD SWAP2 MSTORE DUP2 MSTORE PUSH1 0x20 ADD PUSH1 0xA9 PUSH1 0x2 EXP PUSH11 0x38BAB0B6103A3790199917 MUL DUP2 MSTORE POP SWAP1 ISZERO ISZERO PUSH2 0x5FF JUMPI PUSH1 0x40 MLOAD PUSH1 0xE5 PUSH1 0x2 EXP PUSH3 0x461BCD MUL DUP2 MSTORE PUSH1 0x4 ADD PUSH2 0x325 SWAP2 SWAP1 PUSH2 0x994 JUMP JUMPDEST POP POP ADD PUSH1 0x20 ADD MLOAD SWAP1 JUMP JUMPDEST SWAP1 JUMP JUMPDEST PUSH1 0x20 DUP2 LT ISZERO PUSH2 0x636 JUMPI PUSH1 0x1 DUP2 PUSH1 0x20 SUB PUSH2 0x100 EXP SUB DUP1 NOT DUP4 MLOAD AND DUP2 DUP6 MLOAD AND DUP1 DUP3 OR DUP7 MSTORE POP POP POP PUSH2 0x49A JUMP JUMPDEST DUP3 DUP3 EQ ISZERO PUSH2 0x643 JUMPI PUSH2 0x49A JUMP JUMPDEST DUP3 DUP3 GT ISZERO PUSH2 0x689 JUMPI PUSH1 0x20 DUP2 DIV PUSH1 0x20 DUP3 SUB SWAP2 POP DUP2 DUP4 ADD DUP3 DUP6 ADD DUP2 MLOAD PUSH1 0x0 JUMPDEST DUP5 DUP2 LT ISZERO PUSH2 0x67E JUMPI DUP7 MLOAD DUP9 MSTORE PUSH1 0x20 SWAP8 DUP9 ADD SWAP8 SWAP1 SWAP7 ADD SWAP6 PUSH1 0x1 ADD PUSH2 0x660 JUMP JUMPDEST POP SWAP1 MSTORE POP PUSH2 0x49A SWAP1 POP JUMP JUMPDEST PUSH1 0x20 DUP2 DIV PUSH1 0x20 DUP3 SUB SWAP2 POP DUP2 DUP4 ADD DUP3 DUP6 ADD DUP5 MLOAD PUSH1 0x0 JUMPDEST DUP5 DUP2 LT ISZERO PUSH2 0x6BD JUMPI DUP4 MLOAD DUP4 MSTORE PUSH1 0x1F NOT SWAP4 DUP5 ADD SWAP4 SWAP1 SWAP3 ADD SWAP2 PUSH1 0x1 ADD PUSH2 0x69E JUMP JUMPDEST POP DUP7 MSTORE POP POP POP POP POP POP JUMP JUMPDEST PUSH1 0x0 PUSH2 0x6D4 DUP3 CALLDATALOAD PUSH2 0x9F6 JUMP JUMPDEST SWAP4 SWAP3 POP POP POP JUMP JUMPDEST PUSH1 0x0 PUSH2 0x6D4 DUP3 CALLDATALOAD PUSH2 0x609 JUMP JUMPDEST PUSH1 0x0 PUSH1 0x1F DUP3 ADD DUP4 SGT PUSH2 0x6F8 JUMPI PUSH1 0x0 DUP1 REVERT JUMPDEST DUP2 CALLDATALOAD PUSH2 0x70B PUSH2 0x706 DUP3 PUSH2 0x9CB JUMP JUMPDEST PUSH2 0x9A5 JUMP JUMPDEST SWAP2 POP DUP1 DUP3 MSTORE PUSH1 0x20 DUP4 ADD PUSH1 0x20 DUP4 ADD DUP6 DUP4 DUP4 ADD GT ISZERO PUSH2 0x727 JUMPI PUSH1 0x0 DUP1 REVERT JUMPDEST PUSH2 0x732 DUP4 DUP3 DUP5 PUSH2 0xA07 JUMP JUMPDEST POP POP POP SWAP3 SWAP2 POP POP JUMP JUMPDEST PUSH1 0x0 DUP1 PUSH1 0x40 DUP4 DUP6 SUB SLT ISZERO PUSH2 0x74E JUMPI PUSH1 0x0 DUP1 REVERT JUMPDEST DUP3 CALLDATALOAD PUSH1 0x1 PUSH1 0x40 PUSH1 0x2 EXP SUB DUP2 GT ISZERO PUSH2 0x764 JUMPI PUSH1 0x0 DUP1 REVERT JUMPDEST PUSH2 0x770 DUP6 DUP3 DUP7 ADD PUSH2 0x6E7 JUMP JUMPDEST SWAP3 POP POP PUSH1 0x20 DUP4 ADD CALLDATALOAD PUSH1 0x1 PUSH1 0x40 PUSH1 0x2 EXP SUB DUP2 GT ISZERO PUSH2 0x78C JUMPI PUSH1 0x0 DUP1 REVERT JUMPDEST PUSH2 0x798 DUP6 DUP3 DUP7 ADD PUSH2 0x6E7 JUMP JUMPDEST SWAP2 POP POP SWAP3 POP SWAP3 SWAP1 POP JUMP JUMPDEST PUSH1 0x0 DUP1 PUSH1 0x40 DUP4 DUP6 SUB SLT ISZERO PUSH2 0x7B5 JUMPI PUSH1 0x0 DUP1 REVERT JUMPDEST DUP3 CALLDATALOAD PUSH1 0x1 PUSH1 0x40 PUSH1 0x2 EXP SUB DUP2 GT ISZERO PUSH2 0x7CB JUMPI PUSH1 0x0 DUP1 REVERT JUMPDEST PUSH2 0x7D7 DUP6 DUP3 DUP7 ADD PUSH2 0x6E7 JUMP JUMPDEST SWAP3 POP POP PUSH1 0x20 PUSH2 0x798 DUP6 DUP3 DUP7 ADD PUSH2 0x6DB JUMP JUMPDEST PUSH1 0x0 DUP1 PUSH1 0x0 PUSH1 0x60 DUP5 DUP7 SUB SLT ISZERO PUSH2 0x7FD JUMPI PUSH1 0x0 DUP1 REVERT JUMPDEST DUP4 CALLDATALOAD PUSH1 0x1 PUSH1 0x40 PUSH1 0x2 EXP SUB DUP2 GT ISZERO PUSH2 0x813 JUMPI PUSH1 0x0 DUP1 REVERT JUMPDEST PUSH2 0x81F DUP7 DUP3 DUP8 ADD PUSH2 0x6E7 JUMP JUMPDEST SWAP4 POP POP PUSH1 0x20 PUSH2 0x830 DUP7 DUP3 DUP8 ADD PUSH2 0x6DB JUMP JUMPDEST SWAP3 POP POP PUSH1 0x40 PUSH2 0x841 DUP7 DUP3 DUP8 ADD PUSH2 0x6C8 JUMP JUMPDEST SWAP2 POP POP SWAP3 POP SWAP3 POP SWAP3 JUMP JUMPDEST PUSH1 0x0 DUP1 PUSH1 0x0 PUSH1 0x60 DUP5 DUP7 SUB SLT ISZERO PUSH2 0x860 JUMPI PUSH1 0x0 DUP1 REVERT JUMPDEST DUP4 CALLDATALOAD PUSH1 0x1 PUSH1 0x40 PUSH1 0x2 EXP SUB DUP2 GT ISZERO PUSH2 0x876 JUMPI PUSH1 0x0 DUP1 REVERT JUMPDEST PUSH2 0x882 DUP7 DUP3 DUP8 ADD PUSH2 0x6E7 JUMP JUMPDEST SWAP4 POP POP PUSH1 0x20 PUSH2 0x893 DUP7 DUP3 DUP8 ADD PUSH2 0x6DB JUMP JUMPDEST SWAP3 POP POP PUSH1 0x40 PUSH2 0x841 DUP7 DUP3 DUP8 ADD PUSH2 0x6DB JUMP JUMPDEST PUSH1 0x0 DUP1 PUSH1 0x0 PUSH1 0x60 DUP5 DUP7 SUB SLT ISZERO PUSH2 0x8B9 JUMPI PUSH1 0x0 DUP1 REVERT JUMPDEST DUP4 CALLDATALOAD PUSH1 0x1 PUSH1 0x40 PUSH1 0x2 EXP SUB DUP2 GT ISZERO PUSH2 0x8CF JUMPI PUSH1 0x0 DUP1 REVERT JUMPDEST PUSH2 0x8DB DUP7 DUP3 DUP8 ADD PUSH2 0x6E7 JUMP JUMPDEST SWAP4 POP POP PUSH1 0x20 PUSH2 0x8EC DUP7 DUP3 DUP8 ADD PUSH2 0x6DB JUMP JUMPDEST SWAP3 POP POP PUSH1 0x40 DUP5 ADD CALLDATALOAD PUSH1 0x1 PUSH1 0x40 PUSH1 0x2 EXP SUB DUP2 GT ISZERO PUSH2 0x908 JUMPI PUSH1 0x0 DUP1 REVERT JUMPDEST PUSH2 0x841 DUP7 DUP3 DUP8 ADD PUSH2 0x6E7 JUMP JUMPDEST PUSH2 0x91D DUP2 PUSH2 0x9F6 JUMP JUMPDEST DUP3 MSTORE POP POP JUMP JUMPDEST PUSH2 0x91D DUP2 PUSH2 0xA02 JUMP JUMPDEST PUSH2 0x91D DUP2 PUSH2 0x609 JUMP JUMPDEST PUSH1 0x0 PUSH2 0x940 DUP3 PUSH2 0x9F2 JUMP JUMPDEST DUP1 DUP5 MSTORE PUSH2 0x954 DUP2 PUSH1 0x20 DUP7 ADD PUSH1 0x20 DUP7 ADD PUSH2 0xA13 JUMP JUMPDEST PUSH2 0x95D DUP2 PUSH2 0xA43 JUMP JUMPDEST SWAP1 SWAP4 ADD PUSH1 0x20 ADD SWAP4 SWAP3 POP POP POP JUMP JUMPDEST PUSH1 0x20 DUP2 ADD PUSH2 0x1F0 DUP3 DUP5 PUSH2 0x914 JUMP JUMPDEST PUSH1 0x20 DUP2 ADD PUSH2 0x1F0 DUP3 DUP5 PUSH2 0x923 JUMP JUMPDEST PUSH1 0x20 DUP2 ADD PUSH2 0x1F0 DUP3 DUP5 PUSH2 0x92C JUMP JUMPDEST PUSH1 0x20 DUP1 DUP3 MSTORE DUP2 ADD PUSH2 0x6D4 DUP2 DUP5 PUSH2 0x935 JUMP JUMPDEST PUSH1 0x40 MLOAD DUP2 DUP2 ADD PUSH1 0x1 PUSH1 0x40 PUSH1 0x2 EXP SUB DUP2 GT DUP3 DUP3 LT OR ISZERO PUSH2 0x9C3 JUMPI PUSH1 0x0 DUP1 REVERT JUMPDEST PUSH1 0x40 MSTORE SWAP2 SWAP1 POP JUMP JUMPDEST PUSH1 0x0 PUSH1 0x1 PUSH1 0x40 PUSH1 0x2 EXP SUB DUP3 GT ISZERO PUSH2 0x9E1 JUMPI PUSH1 0x0 DUP1 REVERT JUMPDEST POP PUSH1 0x20 PUSH1 0x1F SWAP2 SWAP1 SWAP2 ADD PUSH1 0x1F NOT AND ADD SWAP1 JUMP JUMPDEST MLOAD SWAP1 JUMP JUMPDEST PUSH1 0x1 PUSH1 0xA0 PUSH1 0x2 EXP SUB AND SWAP1 JUMP JUMPDEST ISZERO ISZERO SWAP1 JUMP JUMPDEST DUP3 DUP2 DUP4 CALLDATACOPY POP PUSH1 0x0 SWAP2 ADD MSTORE JUMP JUMPDEST PUSH1 0x0 JUMPDEST DUP4 DUP2 LT ISZERO PUSH2 0xA2E JUMPI DUP2 DUP2 ADD MLOAD DUP4 DUP3 ADD MSTORE PUSH1 0x20 ADD PUSH2 0xA16 JUMP JUMPDEST DUP4 DUP2 GT ISZERO PUSH2 0xA3D JUMPI PUSH1 0x0 DUP5 DUP5 ADD MSTORE JUMPDEST POP POP POP POP JUMP JUMPDEST PUSH1 0x1F ADD PUSH1 0x1F NOT AND SWAP1 JUMP STOP 0x4c PUSH6 0x6E677468206D PUSH22 0x73742062652067726561746572207468616E206F7220 PUSH6 0xA265627A7A72 ADDRESS PC KECCAK256 MSTORE8 DUP6 DUP10 0xb2 DUP5 EXP PUSH24 0x7C957231875333497FAEBC54A827226E8977BA68722A5935 0xce PUSH13 0x6578706572696D656E74616CF5 STOP CALLDATACOPY "
			}
		}
	},
	"sourceTreeHashHex": "0x9af8d5b4388ff3e0c41f45168473ec36a60f4325e2feb6f4bb1d3a3a98769fdd",
	"compiler": {
		"name": "solc",
		"version": "0.4.24",
		"settings": {
			"optimizer": {
				"enabled": true,
				"runs": 0
			},
			"outputSelection": {
				"*": {
					"*": [
						"abi",
						"evm.bytecode.object",
						"evm.bytecode.sourceMap",
						"evm.deployedBytecode.object",
						"evm.deployedBytecode.sourceMap"
					]
				}
			}
		}
	}
}